:107000005FC0000078C0000076C0000074C00000BF
:1070100072C0000070C000006EC000006CC00000B4
:107020006AC0000068C00000AFC4000064C0000077
:1070300062C0000060C000005EC000005CC00000D4
:107040005AC00000CDC0000056C0000054C000006F
:1070500052C0000050C000004EC000004CC00000F4
:107060004AC0000048C0000046C0000044C0000004
:1070700042C0000040C000003EC000003CC0000014
:107080003AC0000038C0000036C0000034C0000024
:1070900032C0000030C000002EC000002CC0000034
:1070A0002AC0000028C0000026C00000303E493E33
:1070B000F03E493EF03E813EA33EF03EC33ED53E0B
:1070C00011241FBECFEFDAE0DEBFCDBF11E0A0E09C
:1070D000B1E0EAE6FEE702C005900D92AE3AB107D4
:1070E000D9F711E0AEEAB1E001C01D92A43CB107AE
:1070F000E1F73CD3B8C684CF84E08093E900809167
:10710000E80085FD0DC08091E8008B778093E80052
:107110008091E80082FDF3CF8EB38111F9CF02C0D8
:107120008091F100089593E09093E9009091E80038
:1071300095FF09C08093F10084E690E09093B3013D
:107140008093B20108959091E8009E779093E800B3
:107150009091E80090FDEECF9EB39111F9CF089584
:10716000F89410926F001092810010928500109296
:10717000840081E085BF15BE0C94000008958091C5
:10718000B8019091B90101969093B9018093B8012B
:10719000089584B7877F84BF88E10FB6F894809301
:1071A0006000109260000FBE90E880E00FB6F89487
:1071B00090936100809361000FBE81E085BF82E003
:1071C00085BFE1E6F0E090831082109289009AEF8B
:1071D0009093880080936F0083E080938100BCC30C
:1071E0001F920F920FB60F9211242F938F939F939C
:1071F000EF93FF9310928500109284008091B2016A
:107200009091B301009729F001979093B301809377
:10721000B2018091B0019091B101009729F00197DE
:107220009093B1018093B001E0E0F0E085919491FA
:10723000019649F08091AE019091AF010196909333
:10724000AF018093AE01FF91EF919F918F912F91AC
:107250000F900FBE0F901F90189542E061EC82E0F6
:1072600010D342E161E883E00CD342E160E884E0BE
:1072700008C38091BC01982F9F77913239F5909186
:10728000BD01903291F0913209F5813AF9F4809183
:10729000E800877F8093E80067E070E083E091E09A
:1072A00021D48091E8008B770FC0813279F48091EE
:1072B000E800877F8093E80067E070E083E091E07A
:1072C0006ED48091E8008E778093E80008956F92E5
:1072D0007F928F929F92AF92BF92CF92DF92EF9266
:1072E000FF920F931F93CF93DF9384E08093E90085
:1072F0008091E80082FF2BC284E690E09093B10178
:107300008093B001F9DEC82F853481F48CE49DE1CF
:107310009093AF018093AE0107B600FCFDCFF999C1
:10732000FECF81E180935700E89503C0843521F4B6
:10733000E3DE8DE0F8DEE2C18C34D9F38035C9F3A9
:10734000843721F484E4EFDE80E0F4CF813611F459
:1073500089E5F0CF813491F4CFDEC82FCDDE90E007
:10736000880F991F2C2F30E0322F2227330F822BCA
:10737000932BAA2797FDA095BA2F94C1803711F4BB
:1073800083E5D8CF833549F4C4EAD1E01C2F195FD7
:107390008991C9DE1C13FCCFB1C1863521F481E38C
:1073A000C2DE80E3C7CF833731F487E8BCDE85E9EE
:1073B000BADE8EE1BFCF8536B9F4E0E0F0E083E0DD
:1073C00095E080935700E89507B600FCFDCF9093B9
:1073D0005700E89507B600FCFDCFE058FF4FE115D8
:1073E00020E7F20771F7A5CF823719F4E1E0F0E06A
:1073F0000EC0863419F4E0E0F0E009C08E3419F4D0
:10740000E3E0F0E004C0813539F4E2E0F0E089E047
:107410008093570084918ECF823631F489E583DEE4
:1074200080E081DE80E886CF823419F0873609F06B
:10743000D1C01092AF011092AE015EDE082F5CDE6B
:10744000D82F5ADE182F8BEB810F823010F08FE38C
:1074500071CF2D2F30E0302B10926F00C73609F01E
:1074600043C081E180935700E895E90100E0BB2427
:10747000B394209709F4AAC0C090B401D090B5018C
:10748000E090B601F090B7011634B9F4E02FF0E0C7
:10749000EC29FD29849147DE002369F082E0C80EC3
:1074A000D11CE11CF11CC092B401D092B501E09254
:1074B000B601F092B7010B2515C0D701C601B695EC
:1074C000A79597958795B9D42EDEE2E0CE0ED11C14
:1074D000E11CF11CC092B401D092B501E092B6015A
:1074E000F092B7012197C5CF8090B4019090B5017B
:1074F000A090B601B090B701163441F483E0F401D6
:1075000080935700E89507B600FCFDCFE901712C88
:1075100000E066246394209709F44CC0163431F5DA
:10752000002301F1C090B401D090B501E090B60104
:10753000F090B701E1DD272D30E0382BF60109018D
:1075400060925700E8951124F2E0CF0ED11CE11CA7
:10755000F11CC092B401D092B501E092B601F09254
:10756000B70102C0C9DD782E062522C0C5DD682F0F
:107570008091B4019091B501A091B601B091B7018D
:10758000B695A7959795879560D48091B401909111
:10759000B501A091B601B091B7010296A11DB11D30
:1075A0008093B4019093B501A093B601B093B70155
:1075B0002197B1CF163441F485E0F4018093570050
:1075C000E89507B600FCFDCF8DE0ADDD82E080934D
:1075D0006F0094C0833471F4C091B401D091B501AF
:1075E0008BDD90E021E0FE010C0120935700E8952F
:1075F00011249FCE833601F5C090B401D090B5011F
:10760000E090B601F090B70177DDF601E16090E01F
:1076100021E00C0120935700E8951124F2E0CF0EF1
:10762000D11CE11CF11CC092B401D092B501E092D2
:10763000B601F092B7017DCE8D3661F4E091B401D0
:10764000F091B50185E080935700E89507B600FCFE
:10765000FDCF6FCE823551F4E091B401F091B501C8
:10766000C591D4918D2F5FDD8C2F64CE843419F5B4
:1076700043DD682F8091B4019091B501A091B601CE
:10768000B091B701B695A79597958795DED3809170
:10769000B4019091B501A091B601B091B7010296E5
:1076A000A11DB11D8093B4019093B501A093B601C3
:1076B000B093B7013ECE8436F1F4C090B401D090BF
:1076C000B501E090B601F090B701D701C601B695BB
:1076D000A79597958795B1D326DD22E0C20ED11CE0
:1076E000E11CF11CC092B401D092B501E092B60148
:1076F000F092B70103C08B3109F0A9CE83E08093EB
:10770000E9009091E8008091E8008E778093E8008E
:1077100095FD11C08091E80080FD04C08EB38111F9
:10772000F9CF15C08091E8008E778093E80003C000
:107730008EB3882361F08091E80080FFF9CF84E068
:107740008093E9008091E8008B778093E800DF91D7
:10775000CF911F910F91FF90EF90DF90CF90BF904E
:10776000AF909F908F907F906F9008952091000828
:1077700030910108109201081092000884B714BEDD
:1077800098E10FB6F89490936000109260000FBEDD
:107790005D98559A94B19F7994B995B1906695B9D1
:1077A00081FD1DC093B19076D1F080FF09C0E0E06B
:1077B000F0E0459154914F3F5F4F11F0D1DC0FC085
:1077C00083FF0DC0809100019091010128173907B6
:1077D00031F0E0E0F0E085919491019679F7D9DC01
:1077E00078941092AF011092AE018091020188232B
:1077F00069F06DDD0BD38091AE019091AF018134C2
:107800009F4110F010920201BADCEFCF8091E000AE
:1078100081608093E000A4DC80E090E00895292F4F
:1078200030E02230310559F02330310569F0213044
:107830003105F9F482E190E022E931E01EC08EE3E7
:1078400090E024E531E019C0882349F0813061F0EF
:10785000823079F480E290E02AE031E00EC084E0EA
:1078600090E020E531E009C082E290E02CE231E0D6
:1078700004C080E090E020E030E0FA013183208312
:1078800008958093E900EBEEF0E0808181608083D1
:10789000EDEEF0E010826093EC0040838091EE000A
:1078A000881F8827881F08958091BC0187FF0FC01B
:1078B0008091E80082FD04C08EB38111F9CF10C021
:1078C0008091E8008B770AC08EB3882349F08091BD
:1078D000E80080FFF9CF8091E8008E778093E80080
:1078E00008950F931F93CF93DF9341D048D0C8EDF5
:1078F000D0E088818F7788838881806888838881B9
:107900008F7D888319BC1EBA1092BA0100EE10E078
:10791000F80180818B7F808388818160888342E049
:1079200060E080E0AEDFE1EEF0E080818E7F80837A
:10793000E2EEF0E0808181608083808188608083D6
:10794000F80180818E7F8083888180618883DF91C8
:10795000CF911F910F910895E7EDF0E08081816054
:1079600080838AE482BF81E08093BB01BACFE8EDD7
:10797000F0E080818E7F80831092E2000895109263
:10798000DA001092E10008951F920F920FB60F9245
:1079900011242F933F934F935F936F937F938F9314
:1079A0009F93AF93BF93EF93FF938091DA0080FF93
:1079B00019C08091D80080FF15C08091DA008E7FB9
:1079C0008093DA008091D90019BC80FF09C082E061
:1079D00089BD09B400FEFDCF81E08EBB16D202C086
:1079E0001EBA13D28091E10080FF17C08091E2009F
:1079F00080FF13C08091E2008E7F8093E20080912F
:107A0000E20080618093E2008091D80080628093E0
:107A1000D80019BC85E08EBBF8D18091E10084FFCD
:107A20002BC08091E20084FF27C019BC82E089BD91
:107A300009B400FEFDCF8091D8008F7D8093D800DF
:107A40008091E1008F7E8093E1008091E2008F7E43
:107A50008093E2008091E20081608093E200809157
:107A6000BA01811106C08091E30087FD02C081E068
:107A700001C084E08EBBC9D18091E10083FF21C0A9
:107A80008091E20083FF1DC08091E100877F809399
:107A9000E10082E08EBB1092BA018091E1008E7FFE
:107AA0008093E1008091E2008E7F8093E2008091DC
:107AB000E20080618093E20042E060E080E0E1DE8D
:107AC000A4D1FF91EF91BF91AF919F918F917F9141
:107AD0006F915F914F913F912F910F900FBE0F903B
:107AE0001F9018952091C2013091C30126173707C6
:107AF00048F06115710539F42091E8002E77209344
:107B0000E80001C0B90140E061157105A1F12EB393
:107B1000222309F440C0253009F43FC02091E80039
:107B200023FD37C02091E80022FD2DC02091E80000
:107B300020FFEACF4091F3002091F20030E0342B97
:107B4000FC01CF016115710559F02830310540F471
:107B500081918093F100615071092F5F3F4FF1CF08
:107B600041E02830310509F040E02091E8002E770F
:107B70002093E800C9CF4111CACF05C08EB3882336
:107B800051F0853051F08091E80082FFF7CF80E01E
:107B9000089581E0089582E0089583E008956115D5
:107BA000710529F42091E8002B772093E800FC016F
:107BB0006115710531F18EB3882359F1853059F182
:107BC0008091E80083FD23C08091E80082FFF0CF20
:107BD0002091F3008091F20090E0922B892B31F0FC
:107BE0008091F10081936150710991F78091E800D3
:107BF0008B778093E800DCCF8EB3882351F08530FB
:107C000051F08091E80080FFF7CF80E0089581E097
:107C1000089582E0089583E008950F931F93CF9312
:107C2000DF9300D0CDB7DEB7ECEBF1E088E08E0F4C
:107C30009091F10091938E13FBCF1BDB8091E800B4
:107C400083FFCEC08091BC019091BD01492F50E0CF
:107C50004A30510508F0C4C0FA01EA5AF74CE7C0AF
:107C6000823809F0BDC08091C00187708093E9001F
:107C70008091EB001092E9009091E800977F90933B
:107C8000E80085FB882780F98093F1001092F100CD
:107C900085C0282F2D7F09F0A3C0823009F0A0C035
:107CA0008091BE01811127C08091C001877009F4C5
:107CB00097C08093E9002091EB0020FF1CC0933017
:107CC00021F48091EB00806214C09091EB009061F0
:107CD0009093EB0021E030E0A90102C0440F551F52
:107CE0008A95E2F74093EA001092EA008091EB0057
:107CF00088608093EB001092E9008091E800877F14
:107D000050C081116DC01091BE011F770FB7F8945C
:107D10008091E800877F8093E800C6DD8091E800CD
:107D200080FFFCCF8091E3008078812B8093E3007B
:107D300080688093E300111102C082E001C083E0FB
:107D40008EBB0FBF4DC08058823008F049C0AE01D5
:107D50004F5F5F4F6091C0018091BE019091BF0164
:107D60005EDDBC01892B09F43BC09091E800977F50
:107D70009093E80089819A81B5DE8091E8008B7745
:107D80008093E8002DC0803859F58091E800877F06
:107D90008093E8008091BA018093F1008091E8001F
:107DA0008E778093E80080DD1BC0811119C090910F
:107DB000BE019230A8F48091E800877F8093E800AC
:107DC0009093BA0171DD8091BA01811106C0809152
:107DD000E30087FD02C081E001C084E08EBB3DDA94
:107DE0008091E80083FF0AC08091EB00806280935D
:107DF000EB008091E800877F8093E8000F900F9060
:107E0000DF91CF911F910F9108950895CF938EB375
:107E1000882359F0C091E900C7701092E900809161
:107E2000E80083FDFADEC093E900CF910895EE0FDC
:107E3000FF1F0590F491E02D0994F999FECF92BDB2
:107E400081BDF89A992780B50895262FF999FECF1C
:107E50001FBA92BD81BD20BD0FB6F894FA9AF99A67
:0A7E60000FBE01960895F894FFCFBD
:107E6A00777701000000000000082003500061003D
:107E7A007800200049006E007300740072007500DB
:107E8A006D0065006E007400730000002203540048
:107E9A00340030003000200042006F006F00740090
:107EAA006C006F0061006400650072002000000031
:107EBA000403090409023E00020100803209040099
:107ECA000001020201000524001001042402040535
:107EDA0024060001070582030800FF0904010002C5
:107EEA000A000000070504021000010705830210BA
:107EFA0000011201100102000008512B00100100BC
:0E7F0A00020100014341544552494E4100001E
:040000030000700089
:00000001FF
