:100000000C94DC030C9404040C9404040C94B00FC2
:100010000C9416050C9404040C9404040C94DC0455
:100020000C9404040C943A050C94A4310C94823082
:100030000C9404040C9404040C9404040C94040420
:100040000C9404040C9404040C9404040C94040410
:100050000C9404040C9404040C9404040C94D62A08
:100060000C9404040C9404040C9404040C940404F0
:100070000C9404040C9404040C9404040C940404E0
:100080000C9404040C9404040C9404040C940404D0
:100090000C94B8110C9404040C9404040C940404FF
:1000A0000C9404040C9404040C94040401232523EC
:1000B000272335233B233F234A23162C192C082CB6
:1000C0000C2C122C3A2C3A2C3A2C1D2C212C252CA1
:1000D0002B2C2F2C3A2C352C00002F0036007200D0
:1000E000C4002C01A7013702D8028C035004250557
:1000F0000906FD06FF0710092E0A580B8F0CD20DBA
:100100001F0F7710D9114313B6143016B2173A19CE
:10011000C71A581CED1D861F2121BE225D24FD2516
:100120009C273A29D72A722C0A2EA12F3431C632A5
:100130005734E63575370439953A263CB93D4D3F7D
:10014000E3407B421544B0454D47EB488A4A2A4C70
:10015000CB4D6C4F0F51B352BB54FC55A15747596F
:10016000EE5A955C3D5EE55F8E613763E0648A66BA
:10017000DA67DE69896B336DDE6E88703272DD732B
:1001800087753177DA78837A2C7CD57D7D7F2481E1
:10019000CB8271841786BB876089038BA68C478EC0
:1001A000E88F88912793C6946396FF979B99359B18
:1001B000CF9C679EFF9F96A12BA3C0A453A6E6A742
:1001C00077A908AB97AC26AEB4AF40B1CCB256B469
:1001D000DFB568B7EFB876BAFBBB7FBD02BF84C09E
:1001E00005C285C304C581C6FEC779C9F3CA6BCCF5
:1001F000E3CD59CFCDD041D2B3D323D593D600D8B8
:100200006CD9D7DA40DCA8DD0EDF72E0D5E136E349
:1002100096E4F4E551E7ACE805EA5DEBB4EC09EEF1
:100220005DEF7C3C3E5E2B3D3F2F5B5D3B2C2A22ED
:100230005C00FFE0FFD1A4AFFF32FFD0FFFEFFE084
:10024000FFD1AC00AEA5FFD0FFFEFFE0FFD1100054
:10025000FFFEFFD0FFE0FFD1FFCFA3A1C0402CFFE6
:10026000322EFF322FFF3226A6C018AFFF64A5FF43
:1002700064FF64A4FFD0FFFE01050800FF06012112
:100280000235207FFF07FF06FF0900502216568027
:100290008080800080153353A0A0A0025757505093
:1002A000F850F850500257572070A0702870201353
:1002B000355580A040A02002475740A0A040A0A0F4
:1002C00050251353808080122656408080808040C5
:1002D0001226568040404040800245559060F060B4
:1002E000900255552020F82020113353604080049F
:1002F0004151F011335340E0400246561010204067
:10030000808012365640A0A0A0A04012365640C0B1
:10031000404040E00246566090106080F002465631
:10032000F020601090600246562060A0F02020026D
:100330004656F080E01090600246566080E0909053
:1003400060024656F0102020404002465660906001
:10035000909060024656609090701060122555C0D3
:10036000C000C0C011365660600060408012365632
:10037000204080804020034353F000F01236568026
:10038000402020408012365640A0204000400158B6
:1003900058304898A8A8904030024656609090F097
:1003A0009090024656E090E09090E00246566090B1
:1003B00080809060024656E090909090E002465611
:1003C000F080E08080F0024656F080E0808080027D
:1003D0004656609080B090600246569090F09090A3
:1003E00090123656E040404040E0024656702020D1
:1003F00020A04002465690A0C0A0A0900246568081
:1004000080808080F002465690F0F09090900246F6
:100410005690D0F0B0B090024656609090909060A8
:10042000024656E09090E08080014757609090D05F
:10043000B06010024656E09090E090900246566000
:100440009040209060123656E040404040400246C6
:100450005690909090906002465690909090606078
:10046000024656909090F0F0900246569090606050
:100470009090025656888850202020024656F01050
:10048000204080F0123656E080808080E0024656A0
:10049000808040201010123656E020202020E016E8
:1004A000325240A0014151F0162252804002445481
:1004B000709090700246568080E09090E012345424
:1004C0006080806002465610107090907002445414
:1004D00060B0C060024656205040E04040014555A3
:1004E00060907010600246568080E09090901236C6
:1004F000564000C04040E01137572000202020A087
:1005000040024656808090E09090123656C040409F
:100510004040E0025454D0A8A8A8024454E090906F
:100520009002445460909060014555E090E08080D6
:100530000145557090701010024454A0D080801274
:10054000345460C020C00246564040E04050200273
:10055000445490909070123454A0A0A0400254547F
:1005600088A8A8500244549060609001455590902E
:10057000709060024454F02040F002475730402011
:10058000C0204030221656808080808080024757ED
:10059000C02040304020C006425250A0FF07060550
:1005A000040100080A0B0C0D090000000200090FED
:1005B0000000030401000C00000000000000000027
:1005C000000000000000000004080201104080400C
:1005D0001020408040800802040180402010020169
:1005E0001080102040402004040404040304050289
:1005F00002020204030202020206060606060604BE
:100600000402020204040000000023002600290066
:100610002C002F0000000000250028002B002E00D9
:10062000310000000000240027002A002D003000C7
:10063000080B00020202010009040000010202008E
:10064000000524001001052401010104240206050F
:10065000240600010705810310004009040100027F
:100660000A0000000705020240000007058302405F
:10067000000000C180811201000202000040512BE5
:1006800005100001010200011201000200000040FB
:10069000512B051000010102000150617820496EC4
:1006A000737472756D656E74730054343030000469
:1006B00003090400407A10F35A00A0724E18090092
:1006C00010A5D4E80000E87648170000E40B5402B7
:1006D0000000CA9A3B000000E1F5050000809698F2
:1006E00000000040420F000000A086010000001042
:1006F0002700000000E80300000000640000000084
:10070000000A00000000000100000000002C76D864
:1007100088DC674F0823DFC1DFAE59E1B1B796E54A
:10072000E3E453C63AE651997696E8E6C28426EBAE
:10073000898C9B62ED407C6FFCEFBC9C9F40F2BAC1
:10074000A56FA5F490055A2AF75C936B6CF9676D59
:10075000C11BFCE0E40D47FEF520E6B500D0ED90AE
:100760002E0300943577050080841E080000204E7B
:100770000A000000C80C333333330F986E12831114
:1007800041EF8D2114893BE65516CFFEE6DB18D1EB
:10079000844B381BF77C1D901DA4BBE424203284BD
:1007A000725E228100C9F124ECA1E53D2700120C04
:1007B000400DF60FD610962D11241FBECFEFDAE0B4
:1007C000DEBFCDBF11E0A0E0B1E0E0E0FFE602C097
:1007D00005900D92A03FB107D9F728E0A0EFB1E056
:1007E00001C01D92AE35B207E1F717E0C8EBD7E0C4
:1007F00004C02297FE010E94C534CE3AD107C9F742
:100800000E940F320C947E370C9400000F931F93BC
:10081000CF93DF93C8E4D1E00EE411E08991811118
:1008200005C062E0F80180810E943B2C0F5F1F4FE2
:10083000F1E0CE34DF0791F780916A008F7C8093DE
:100840006A00EE9A80916900806480936900EB9A57
:1008500080916B00806F80936B0080916800816055
:1008600080936800DF91CF911F910F9108959F921F
:10087000AF92BF92CF92DF92EF92FF920F931F93AE
:10088000CF93DF938EE4A82E81E0B82E08E411E028
:10089000C0E0D0E0C12CD12C7601C3949C2E2091D5
:1008A000F10130E00C2E02C0359527950A94E2F74D
:1008B000F501808120FF1DC00E94AA2C21E030E0BC
:1008C000F8014081442311F020E030E082179307C3
:1008D00061F5D701C60104C0880F991FAA1FBB1F6D
:1008E0009A94D2F780959091F10198239093F10119
:1008F0001CC00E94AA2CF801208130E082179307C7
:10090000A1F4D701C6010C2E04C0880F991FAA1F9D
:10091000BB1F0A94D2F72091F101282B2093F101FB
:100920002091F001282B2093F0012196FFEFAF1AC0
:10093000BF0A0F5F1F4FC630D10509F0AFCFDF915F
:10094000CF911F910F91FF90EF90DF90CF90BF90CC
:10095000AF909F90089581E09091F001911101C0B6
:1009600080E00895F8949091F001492F50E020E044
:1009700030E0822FBA01022E02C0759567950A9465
:10098000E2F760FF11C041E050E060E070E0022E4D
:1009900004C0440F551F661F771F0A94D2F7409575
:1009A00049234093F00106C02F5F3F4F26303105A9
:1009B00001F786E0789408951F920F920FB60F9278
:1009C00011242F933F934F935F936F937F938F9354
:1009D0009F93AF93BF93EF93FF9387E00E94AA2C5E
:1009E000892B41F480916A00806380936A0083B709
:1009F000817F08C080916A008F7C80936A0083B7F2
:100A0000817F846083BF0E943704FF91EF91BF9183
:100A1000AF919F918F917F916F915F914F913F9196
:100A20002F910F900FBE0F901F9018951F920F924D
:100A30000FB60F9211242F933F934F935F936F93B1
:100A40007F938F939F93AF93BF93EF93FF930E94F6
:100A50003704FF91EF91BF91AF919F918F917F915B
:100A60006F915F914F913F912F910F900FBE0F901B
:100A70001F9018951F920F920FB60F9211242F936B
:100A80003F934F935F936F937F938F939F93AF9316
:100A9000BF93EF93FF930E943704FF91EF91BF91B3
:100AA000AF919F918F917F916F915F914F913F9106
:100AB0002F910F900FBE0F901F901895CF93DF933B
:100AC000EC01262F4CAD6BAD04960E9437252BAD63
:100AD000992787FD9095820F911D8BAF81E090E063
:100AE000DF91CF910895FC0125AD211105C021E0D2
:100AF00025AF04960C945A27089504960C94572514
:100B0000109205021092040280E090E0A8ECB1E49B
:100B10008093000290930102A0930202B09303021B
:100B200041E050E060E070E04093FC015093FD0133
:100B30006093FE017093FF0140E050E068EE71E4C5
:100B400040930A0150930B0160930C0170930D01C7
:100B50008093060190930701A0930801B0930901C7
:100B600008952F923F924F925F926F927F928F9251
:100B70009F92AF92BF92CF92DF92EF92FF920F932C
:100B80001F93CF93DF93CDB7DEB72C970FB6F894B2
:100B9000DEBF0FBECDBF8B879C8780910502811180
:100BA00002C083E601C08150809305028091040257
:100BB000843618F48F5F809304020B851C8544E013
:100BC000B42ED801CD90DD90ED90FC9023EF3FE462
:100BD00043EC57E4C701B6010E948832882389F1AB
:100BE00020910A0130910B0140910C0150910D01AF
:100BF000C701B6010E94D733181644F4C0920A0107
:100C0000D0920B01E0920C01F0920D01F801C0802E
:100C1000D180E280F380209106013091070140915C
:100C2000080150910901C701B6010E94883287FF6F
:100C300008C0C0920601D0920701E0920801F0922C
:100C40000901BA940C5F1F4FB110BBCF2091000275
:100C50003091010240910202509103022D833E83A4
:100C60004F8358878090FC019090FD01A090FE0179
:100C7000B090FF01C0900601D0900701E0900801FC
:100C8000F0900901C701B6010E94883287FF08C0B1
:100C9000C0920002D0920102E0920202F09203029E
:100CA000C0900002D0900102E0900202F090030296
:100CB000A701960160910A0170910B0180910C01CE
:100CC00090910D010E9423322B013C01C501B4011A
:100CD00032E0660F771F881F991F3A95D1F70E945F
:100CE00025339B01AC01C301B2010E94D733181612
:100CF000C4F42EE93FEE4FE750E4C301B2010E9475
:100D0000243220E030E040E85EE30E94DB330E94C2
:100D1000F9326093FC017093FD018093FE01909382
:100D2000FF01A70196016D817E818F8198850E94C8
:100D300088322091FC013091FD014091FE015091DB
:100D4000FF0129833A834B835C83811106C082169D
:100D50009306A406B50609F466C006E012E0212C4D
:100D6000312CC801820D931D9A878987DC018C91F3
:100D7000813809F449C06DE370E0681B710987FD93
:100D80007395882777FD8095982F0E9427332B0134
:100D90003C01C501B4010E9425339B01AC01C30194
:100DA000B2010E94DB3320E030E040E251E40E94D7
:100DB0008C322D813E814F8158850E942432A701BB
:100DC00096010E9423322B013C0169817A818B813B
:100DD0009C810E9425339B01AC01C301B2010E949A
:100DE0008C3220E030E040E251E40E94DB339B0192
:100DF000AC0160E070E084E792E40E9423320E943C
:100E0000F432E985FA856083FFEF2F1A3F0A24E662
:100E10002216310409F0A5CF0C591F4F33E00639D3
:100E2000130709F09CCF8091050264E60E944E34BE
:100E30000B851C85812C912CA92EB12CA5014A5F14
:100E40005D4F5A010DC061E8F501E80DF91D6083A1
:100E5000B4E68B0E911CE0E98E16E1E09E06A9F146
:100E6000D8014D905D906D907D908D0123EF3FE412
:100E700043EC57E4C301B2010E948832882319F37E
:100E8000A7019601C301B2010E9423322B013C014C
:100E900069817A818B819C810E9425339B01AC0101
:100EA000C301B2010E948C3220E030E040E251E404
:100EB0000E94DB339B01AC0160E070E084E792E4C8
:100EC0000E9423320E94F432BFCF69817A818B81E4
:100ED0009C8122E0660F771F881F991F2A95D1F702
:100EE0000E9425339B01AC01C701B6010E94243248
:100EF0004B015C0120E030EC49E754E40E94D73319
:100F0000181654F020E030E046EC52ECC701B60170
:100F10000E94883287FF02C084E017C020E030E0E2
:100F200046EC52E4C501B4010E94D733181654F0C0
:100F300020E030E040E151ECC701B6010E94883268
:100F400087FF02C083E001C082E08093FB012C9602
:100F50000FB6F894DEBF0FBECDBFDF91CF911F91CA
:100F60000F91FF90EF90DF90CF90BF90AF909F9048
:100F70008F907F906F905F904F903F902F9008954B
:100F800086E993E00E94730568EA8AE993E00E948B
:100F9000A4278AE993E00E94972961E08AE993E017
:100FA0000E94C32768E772E08AE993E00C94DC258D
:100FB0002F923F924F925F926F927F928F929F9269
:100FC000AF92BF92CF92DF92EF92FF920F931F9357
:100FD000CF93DF93CDB7DEB76D970FB6F894DEBF32
:100FE0000FBECDBF4C016D8B4E8B388F2F8B3701D1
:100FF00086E993E00E9473058AE993E00E949027B6
:10100000512C9E012F5E3F4F3A8B298B802F90E011
:10101000A0E0B0E0898F9A8FAB8FBC8F9DE09C19C8
:101020009D8FA5E0A51508F405C15A1208C000E17E
:1010300024E840E160E08AE993E00E94F025809195
:10104000FB01682F660F660F680F6E5F02E1262FA7
:1010500040E48AE993E00E94F025C12CD12C76016E
:10106000EDE3BE2E8091FB01682F660F660F680FBF
:101070006F5F4B2D8AE993E00E94AA276091FC01E3
:101080007091FD018091FE019091FF01A7019601F1
:101090000E943E340E9425332091000230910102CB
:1010A00040910202509103020E94243203EF11E0AA
:1010B00020E04091FB010E94EA3443E04B0D9C018B
:1010C00060E086E993E00E947D05B6EFBB0EEFEF8E
:1010D000CE1ADE0AEE0AFE0AFBE0BF12C3CF64019D
:1010E00061E7462EE12CF12C74E6372ED6016D9186
:1010F0007D918D919D916D0123EF3FE443EC57E489
:101100000E948832F70131965F01882341F1FD8901
:10111000FE1511F0F43018F1B501882777FD8095A0
:10112000982F0E94273303EF11E020E041E00E9456
:10113000EA349C0180910502632D0E944E343E9C4E
:10114000F0013F9CF00D1124E90FF11DEA5FFD4F06
:1011500040814D5F642D86E993E00E947D05750115
:1011600025E0420E35E84312C1CF40900402809141
:10117000FB01A2E0B0E0A81BB109442D50E065E0FE
:101180006A9F90016B9F300D11242C593F4F2417FB
:10119000350734F44A2E440C440C4A0EB4E64B0E88
:1011A00006E012E08B8A9C8AE12CF12C54E6352E65
:1011B000EB89FC896191719181919191FC8BEB8B11
:1011C00023EF3FE443EC57E40E94883298012C5906
:1011D0003F4F5901811109C03FEFE31AF30A85011E
:1011E00084E0E816F10421F763C19D899E1511F092
:1011F000943090F3809105023E9CF0013F9CF00DED
:101200001124E80FF11DEA5FFD4F212C241421F376
:101210006F01AFEFCA1ADA0A408160E762198AE902
:1012200093E00E94AA27CA14DB0409F468012394FE
:10123000F601ECCFB6E05B12F2C024E531E04FE0FE
:1012400060E086E993E00E947D0529E531E04DE00C
:1012500069E186E993E00E947D05EE89E11103C012
:101260002BE531E008C0FE89F13019F42DE531E0BD
:1012700002C027E531E04FE06EE186E993E00E948D
:101280007D052F89388D4FE068E286E993E00E9462
:101290007D05698D7A8D8B8D9C8D0E94253303EFA2
:1012A00011E020E042E00E94EA349C014FE064E655
:1012B00086E993E00E947D052FE531E04FE06EE680
:1012C00086E993E00E947D050EE06114710469F5E2
:1012D00023E84EE060E88AE993E00E94F0250AE006
:1012E00020E84EE060E88AE993E00E94F02523E8D8
:1012F0004EE063E88AE993E00E94F02509E022E8E5
:1013000049E061E88AE993E00E94F0251DE02D8D17
:10131000121709F4CDC0012F23E8412F60E88AE9B4
:1013200093E00E94F0251150F2CF33E06316710470
:10133000E1F420E849E060E88AE993E00E94F025C2
:1013400009E023E849E060E88AE993E00E94F0259B
:101350000BE022E84BE060E88AE993E00E94F02588
:101360000EE023E84EE060E855C081E068167104A5
:10137000C9F523E84EE060E88AE993E00E94F02591
:101380000AE020E84EE060E88AE993E00E94F02558
:1013900023E84EE063E88AE993E00E94F02509E043
:1013A00022E849E061E88AE993E00E94F025809113
:1013B000F20190E0019665E070E00E946E34809347
:1013C000F20110E08091F201181708F071C04DE0B1
:1013D000411B042F23E860E88AE993E00E94F0258E
:1013E0001F5FF0CF20E84AE060E88AE993E00E94BE
:1013F000F02521E849E061E88AE993E00E94F025C0
:1014000022E849E062E88AE993E00E94F02523E8B7
:101410004AE063E88AE993E00E94F02549C097E03A
:10142000591246C080E1E8E3F1E0DE011196019037
:101430000D928A95E1F7DE0111967D01F701038196
:101440002281418160818AE993E00E94F025F4E0E5
:10145000EF0EF11C29893A89E216F30679F7740137
:10146000412CD701AD90BD90CD90DD907D0123EF53
:101470003FE443EC57E4C601B5010E948832811174
:1014800003C021E631E009C003EF11E021E045E0AF
:10149000C601B5010E94EA349C0146E0642D86E94C
:1014A00093E00E947D05B2E24B0EE8E84E12D9CFE0
:1014B00053948AE993E00E9495278111B2CD6D96ED
:1014C0000FB6F894DEBF0FBECDBFDF91CF911F9155
:1014D0000F91FF90EF90DF90CF90BF90AF909F90D3
:1014E0008F907F906F905F904F903F902F900895D6
:1014F00086E993E00E9473058AE993E00E949027B1
:101500008AE993E00E9495278111FACF08954F92BE
:101510005F926F927F928F929F92AF92BF92CF9283
:10152000DF92EF92FF921F93CF93DF9300D000D012
:10153000CDB7DEB7DC018D909D90AD90BC9020E0E2
:1015400030E040E251E4C501B4010E948C3220E059
:1015500030E048ED51E40E9424320E94F932162F07
:10156000862F90E0880F991FFC01E852FF4FC5902D
:10157000D590E590F49086529F4FFC01859195910E
:10158000A591B49189839A83AB83BC83B6016A53D6
:10159000794180E090E00E9425332B013C01FAE084
:1015A0001F9FB00111246E507140882777FD8095F0
:1015B000982F0E9427339B01AC01C501B4010E9402
:1015C00023324B015C0169817A816C197D0980E0CD
:1015D00090E00E9425339B01AC01C501B4010E943B
:1015E000DB3320E030E040E251E40E948C329B018A
:1015F000AC01C301B2010E9424320E94F4320F9068
:101600000F900F900F90DF91CF911F91FF90EF906F
:10161000DF90CF90BF90AF909F908F907F906F9012
:101620005F904F9008954F925F926F927F928F924A
:101630009F92AF92BF92CF92DF92EF92FF920F9361
:101640001F93CF93DF93CDB7DEB728970FB6F894EB
:10165000DEBF0FBECDBF6B017C010AE3C00E09E106
:10166000D01EE11CF11C1EE5C1161FEED106E104DF
:10167000F10408F070C048ED50E080E090E0FA011D
:1016800085909590A590B49089829A82AB82BC8215
:101690009C012F5F3F4F4E5F5F4FFA018590959001
:1016A000A590B4908D829E82AF82B88689809A8000
:1016B000AB80BC80AA24BB24C814D904EA04FB0470
:1016C0000CF444C04D805E806F807884662477245B
:1016D0004C145D046E047F04CCF12AE0289FB00115
:1016E000299F700D112480E090E00E94253320E0B6
:1016F00030E047E853E40E9423322B013C01C7014C
:10170000B601681979098A099B090E94273320E0EC
:1017100030E040E251E40E94DB336B017C016D81DB
:101720007E81A980BA806A197B0980E090E00E94DE
:1017300025339B01AC01C701B6010E948C329B018D
:10174000AC01C301B2010E9424320DC0253A31051B
:1017500039F0C90194CF63EF7FE483EC97E403C0D1
:1017600060E070E0CB0128960FB6F894DEBF0FBEA4
:10177000CDBFDF91CF911F910F91FF90EF90DF9040
:10178000CF90BF90AF909F908F907F906F905F9021
:101790004F90089561E084E00E943B2C61E084E07A
:1017A0000E94742C60E089E10E943B2C60E08DE196
:1017B0000E943B2CE8EDF0E08081806180830895F9
:1017C000CF93C091D90089E10E94CD2BC0FF0BC0FF
:1017D000893D910558F0895F91098B37910548F44F
:1017E00083E090E008C080E090E005C081E090E0F8
:1017F00002C082E090E0CF9108958DE10E94CD2B50
:1018000025E0AC01249FC001259F900D112480513B
:101810009E4064E670E00E945A34862F653008F0DE
:1018200084E008950F93CF93DF9310929903109261
:101830009803C6E9D3E08BE691E09983888305E1BC
:1018400024E146E16BE171E0CE010E94E42183E7EF
:1018500091E099838883DF91CF910F910895AF92A2
:10186000BF92CF92DF92EF92FF920F931F93CF938D
:10187000DF93EC0100E010E088EEA82E83E0B82EA4
:101880009AE0E92EF12C24E6C22ED12CC801B50134
:101890000E945A34CB01B7010E945A34805D8A837A
:1018A000C801B6010E945A34CB01B7010E945A34D4
:1018B000805D8B83C801B7010E945A34282FCB0169
:1018C000B7010E945A34805D8C83205D2D830F5FA9
:1018D0001F4FBE0186EF93E00E94821D8111D6CF7B
:1018E00042ECBE018CED93E00E94B01B882309F40A
:1018F00079C01092DC0367E771E085E098E00E9410
:10190000F12D69E771E085E098E00E940E2E63E812
:1019100071E085E098E00E94F12DBE0185E098E03D
:101920000E940E2E6AE871E088ED93E00E94F12D8E
:101930006AE871E085E098E00E94F12DC0E063E97B
:1019400071E088ED93E00E94F12D4AE050E06C2FA9
:1019500088ED93E00E94862E63E971E085E098E0CF
:101960000E94F12D4AE050E06C2F85E098E00E9443
:10197000862E80917F048130A9F058F08230F1F4F6
:1019800065EA71E088ED93E00E94F12D65EA71E06F
:1019900011C06BE971E088ED93E00E94F12D6BE9D5
:1019A00071E008C060EA71E088ED93E00E94F12DDB
:1019B00060EA71E085E098E00E94F12DCF5FC430CD
:1019C00009F0BDCF88ED93E00E94FA2D8CED93E0F5
:1019D0000E94641885E098E00E94FA2D8091DC0353
:1019E00091E08927DF91CF911F910F91FF90EF90A8
:1019F000DF90CF90BF90AF9008958CED93E00C9462
:101A0000B0180E94FD0C42E065E086EF93E00C9474
:101A10005A1D0F931F93811113C00E94202B009118
:101A2000D4031091D5032091D6033091D703601BC6
:101A3000710B820B930B683E73408105910580F01A
:101A40000E94202B6093D4037093D5038093D60318
:101A50009093D7038CED93E01F910F910C94641831
:101A60001F910F910895BC0188ED93E00E940E2E06
:101A700080E00E94090D9091DC0381E089270895A0
:101A800089E18093F7031092FA0310920E041092EA
:101A90001504109217041092DC031092DE031092CA
:101AA000DB031092DA038BED91E09093D9038093DE
:101AB000D8030895882311F060E001C061E087E158
:101AC0000C94742C80917F0490E0019663E070E0A8
:101AD0000E946E3480937F040C948005FB01DC012E
:101AE00080917F048823B9F0823031F423E333E915
:101AF00048E853E4CD010BC026E636E646EE5FE348
:101B0000CD010E94DB3320E030E040E052E40E944F
:101B10002432FB01DC01BF01CD01089583B7817F31
:101B2000846083BF0E94CA0B40E855E260E070E029
:101B300085E098E00E94902D87EA94E00E949A1038
:101B400061E087E10E943B2C80910F010E945A0DB9
:101B50000E94C0070E9480058FE994E00E94DF295F
:101B60008DE994E00E94642A60E68DE994E00E9489
:101B70009E2A60E080E00E943B2C80E00E94D42AF4
:101B8000E9E6F0E0808180628083EA9A0C940604A2
:101B900080918704811108C00E94010D80E191E0CD
:101BA0000E942F0C809387040895809187048823D6
:101BB00021F0109287040C94FD0C0895F894E091A4
:101BC0008804F0E0E354FE4F8081815080938504C7
:101BD0001092800410928104109282041092830467
:101BE000789408958F929F92AF92BF92CF92DF9296
:101BF000EF92FF920F931F93CF93DF938091860410
:101C0000882309F4D2C01092860460E070E08DE968
:101C100094E00E94682ABC01882777FD8095982F60
:101C20000E94273320E030E040E85DE30E94DB3390
:101C30006093890470938A0480938B0490938C043E
:101C400003EC11E0CDE8D4E0F80161918F018FE958
:101C500094E00E94E92966E470E080E090E00E9450
:101C60004F2B8FE994E00E94FA298823A1F38FE992
:101C700094E00E94C6294B015C0189E894E00E942F
:101C8000870A6B017C01C501B4010E94273323EA56
:101C900039EE40E85FE30E94DB3328E93EE64AEB99
:101CA00050E40E9424320E94F4326C0D7D1D8E1D82
:101CB0009F1D0E94130B6B017C0123EF3FE443EC5B
:101CC00057E40E948832811109C083EF9FE4A3EC9E
:101CD000B7E488839983AA83BB8308C0C701B60190
:101CE0000E946E0D688379838A839B832496F1E03A
:101CF000073C1F0709F0A8CF609180047091810410
:101D000080918204909183040E9425330FE214E0B5
:101D100020E048E00E94EA34CDE8D4E05801C990C0
:101D2000D990E990F99023EF3FE443EC57E4C701E1
:101D3000B6010E948832F50101900020E9F7811177
:101D400007C0CF016AEA71E001970E94213513C0F4
:101D5000CF016EEA71E001970E942135F5010190F3
:101D60000020E9F78F010150110922E040E0C7018E
:101D7000B6010E94EA34F4E0CD39DF0781F66FE264
:101D800074E085E098E00E940E2E809187048823FD
:101D900031F08FE294E00E94330D809387048DE848
:101DA00094E00E94B105C1E001C0C0E00E94AB0414
:101DB000882309F483C00E94B2048530C9F480915D
:101DC000870481117BC00E94780A80E00E945A0D2E
:101DD0008BE00E94AA2C0197D9F368EC70E080E0B8
:101DE00090E00E944F2B61E08EE10E94742C66C04F
:101DF00081110AC080918704811103C00E94C80D1F
:101E000020C00E94D50D1DC0813099F480918704B7
:101E1000811154C08091880490E0019666E070E0E2
:101E20000E946E34809388040E94DE0D0E9480051B
:101E300008C0823051F48091870481113FC00E9414
:101E4000620D0E94DE0DC1E039C0833069F58091DA
:101E50000E0190E0019665E070E00E946E34F82E6D
:101E600005E010E0CF2DD0E0FE01EE0FFF1FEE0FDA
:101E7000FF1FE357FB4F23EF3FE443EC57E4608140
:101E80007181828193810E94883281110AC083E02E
:101E90008F1538F0CE010196B8010E946E34F82EED
:101EA000E1CFF0920E01CFCF843041F480910F0149
:101EB00091E0892780930F010E945A0D0E94E00B48
:101EC000019749F48091850490918404981719F042
:101ED0008093840402C0CC2349F180918704882335
:101EE00079F00E94FD0BC82E0E94E00B7C01E0916E
:101EF0008804F0E0E354FE4F008120E131E00EC0A1
:101F00000E94FD0BC82E0E94E00B7C01E09188042A
:101F1000F0E0E354FE4F008121EB31E040917F047B
:101F200060910E018DE894E00E94D8070E94E00BBA
:101F3000892B49F4F89483B7816083BF789488959E
:101F400083B78E7F83BFDF91CF911F910F91FF9059
:101F5000EF90DF90CF90BF90AF909F908F900895BB
:101F60001F920F920FB60F9211244F935F936F93AE
:101F70007F938F939F93AF93BF93EF93FF93809142
:101F8000850490E00196E0918804F0E0E354FE4F70
:101F9000608170E00E946E348093850440918004DB
:101FA0005091810460918204709183044F5F5F4F70
:101FB0006F4F7F4F4093800450938104609382045D
:101FC00070938304892B19F481E080938604FF9138
:101FD000EF91BF91AF919F918F917F916F915F91A1
:101FE0004F910F900FBE0F901F90189522E043E085
:101FF00069E68FE994E00E94B02960E070E08DE925
:1020000094E00C945C2A8091D70490E02091D8044D
:10201000821B910908952091D8048091D704281734
:1020200050F4E22FF0E0E752FB4F808190E02F5F09
:102030002093D80408958FEF9FEF0895E091D8047E
:102040008091D704E81730F4F0E0E752FB4F80812D
:1020500090E008958FEF9FEF08950895CF92DF925B
:10206000EF92FF920F931F93CF93DF937C01CB01ED
:102070008A012091B304222389F0EB016B01C40E85
:10208000D51ECC15DD0569F06991D701ED91FC9164
:102090000190F081E02DC7010995F3CF642F0E94D4
:1020A0008F11C801DF91CF911F910F91FF90EF9099
:1020B000DF90CF900895CF93DF931F92CDB7DEB717
:1020C00069832091B3042223D1F02091B4042032FB
:1020D00040F021E030E0FC013383228380E090E097
:1020E00015C08091B504E82FF0E0EA54FB4F9981C8
:1020F00090838F5F8093B5048093B40405C061E042
:10210000CE0101960E948F1181E090E00F90DF9147
:10211000CF910895FC011382128248EE53E060E0F3
:1021200070E044835583668377838BEC91E09183E1
:10213000808308951092D8041092D7041092B504A9
:102140001092B4040C94DA10862F413208F040E269
:1021500069ED74E00E94F8101092D8048093D704BF
:10216000089521E00C94A41081E08093B30460935F
:10217000D6041092B5041092B40408950C94B410CF
:102180000F93062F21E04091B40466EB74E0809138
:10219000D6040E943C111092B5041092B40410921F
:1021A000B3040F91089561E00C94C01087EA94E0A5
:1021B0000C948A101092660581E080936405109259
:1021C000630561E082E00E94742C61E083E00E947C
:1021D000742CE9EBF0E080818E7F808380818D7F9D
:1021E000808380E28093B80085E48093BC000895EA
:1021F000413208F03FC0909166059111FCCF91E00B
:1022000090936605209364052FEF2093F9041092B4
:102210003E05240F20933D0590936505909165053B
:10222000880F892B8093650580916305813041F487
:1022300010926305809165058093BB0085EC01C019
:1022400085EE8093BC00809166058130E1F380913A
:102250003E05841710F440913E052FE335E0FB0165
:10226000D9018A2F821B841718F48D918193F9CF9D
:10227000842F089580E008950F93413208F046C0FE
:10228000909166059111FCCF92E0909366050093C2
:1022900064059FEF9093F90410923E0540933D052D
:1022A000FB016FE375E0DB019A2F961B941718F47E
:1022B00091919D93F9CF1092650590916505880FD6
:1022C000892B8093650580916305813041F41092DC
:1022D0006305809165058093BB0085EC01C085EEA8
:1022E0008093BC00222321F0809166058230E1F3C7
:1022F0008091F9048F3F61F08091F904803251F0B0
:102300008091F904803341F483E007C081E005C087
:1023100080E003C082E001C084E00F910895613243
:1023200098F420916605243089F460931B05FC0124
:102330008DE195E0DC012A2F281B261718F4219146
:102340002D93F9CF80E0089581E0089582E008950B
:1023500085ED8093BC008091BC0084FDFCCF109281
:102360006605089585EC8093BC001092660508957B
:102370001F920F920FB60F9211242F933F934F93FA
:102380005F936F937F938F939F93AF93BF93EF93DD
:10239000FF938091B900887F803609F49CC068F56E
:1023A000883209F45BC090F4803109F454C038F4E9
:1023B000882309F4F5C0883009F44DC0F5C0883190
:1023C00009F44CC0803209F45DC0EEC0803409F4D9
:1023D00068C048F4803309F455C0883309F0E4C07C
:1023E0008093F904A8C0803509F44FC0883509F4FA
:1023F0005DC0883409F0D8C0D5C0883909F4C6C09A
:10240000A8F4883709F467C038F4883609F463C043
:10241000803709F460C0C8C0883809F4B7C0803973
:1024200009F45FC0803809F0BFC05BC0803B09F48D
:1024300085C038F4803A09F466C0883A09F47EC051
:10244000B3C0803C09F4A6C0883C09F4A3C0883B13
:1024500009F489C0A9C08091650510C090913E051E
:1024600080913D05981770F5E0913E0581E08E0F53
:1024700080933E05F0E0E15CFA4F80818093BB00E1
:1024800085EC85C08093F9048DC0E0913E0581E024
:102490008E0F80933E058091BB00F0E0E15CFA4F27
:1024A000808390913E0580913D056DC0E0913E0591
:1024B00081E08E0F80933E058091BB00F0E0E15CEF
:1024C000FA4F80838091640581116CC081E0809314
:1024D000630584EA60C083E0809366051092FA0485
:1024E000CFCF8091FA04803208F050C0E091FA0416
:1024F00081E08E0F8093FA048091BB00F0E0E550FC
:10250000FB4F8083BDCF8091FA04803230F4E0919C
:10251000FA04F0E0E550FB4F10820E94A811609190
:10252000FA0470E0E0915F05F09160058BEF94E0B4
:1025300009951092FA040E94B21136C084E080938B
:10254000660510921C0510921B05E0916105F09143
:102550006205099580911B05811105C081E080937A
:102560001B0510921D05E0911C0581E08E0F8093E4
:102570001C05F0E0E35EFA4F80818093BB009091F0
:102580001C0580911B05981708F47ACF85E8809385
:10259000BC000AC085EC8093BC001092660504C0A4
:1025A0001092F9040E94A811FF91EF91BF91AF9191
:1025B0009F918F917F916F915F914F913F912F915B
:1025C0000F900FBE0F901F9018958FEF8EBD0DB41A
:1025D00007FEFDCF8EB508958EBD0DB407FEFDCF6D
:1025E000089561E0FC0180810E94742C8FEF0C94AF
:1025F000EC12CF93DF93EC016A8187E695E00E94AD
:10260000B51D60E08881DF91CF910C94742CCF923E
:10261000DF92EF92FF920F931F93CF93DF93EC0122
:102620008B017A010E94202B6B010E94E5128B83A3
:102630008F3F49F40E94202B6C197D096D32714047
:10264000A0F381E103C08E3F39F08FE08983CE0192
:102650000E94F11280E028C0E114F104E1F081E071
:10266000E81AF1088FEF8EBDF8012FEFCF01801B24
:10267000910B8E159F0538F40DB407FEFDCF8EB576
:102680002EBD8193F3CF0DB407FEFDCF8EB5F801BB
:10269000EE0DFF1D80831B820E94E5120E94E51251
:1026A000CE010E94F11281E0DF91CF911F910F9135
:1026B000FF90EF90DF90CF9008950F931F93CF93EB
:1026C000DF93EB010E94202B8B010E94E5128F3FCC
:1026D00049F00E94202B601B710B6C177D07A8F33B
:1026E00080E001C081E0DF91CF911F910F910895AB
:1026F000FF920F931F93CF93DF9300D000D0CDB7FD
:10270000DEB78C01F62E29833A834B835C830E94CB
:10271000F91268E572E0C8010E945D138F2D806494
:102720000E94EC128C810E94EC128B810E94EC12B0
:102730008A810E94EC1289810E94EC12F11002C081
:1027400085E901C087E80E94EC128CE0F81202C013
:102750000E94E512F12C0E94E512F801838387FFA5
:1027600005C0FFEFFF1611F0F394F5CF0F900F9017
:102770000F900F90DF91CF911F910F91FF900895CF
:10278000BF92CF92DF92EF92FF920F931F93CF935E
:10279000DF93EC01B42E1C82198268830E94202BE7
:1027A0008B0161E088810E943B2C61E088810E945E
:1027B000742C87E695E00E94A11D80E48A8360E482
:1027C00087E695E00E94B51D2AE0F22E8FEF0E9469
:1027D000EC12FA94D9F720E030E0A90160E0CE01D4
:1027E0000E947813813049F00E94202B601B710BEE
:1027F000613D774080F381E051C02AEA31E040E05A
:1028000050E068E0CE010E947813853011F481E039
:102810000AC094E0F92E0E94E5128B83FA94D9F74E
:102820008A3A59F482E08C838C81823079F4C12C0D
:10283000D12CE12C80E4F82E0CC00E94202B601BD0
:10284000710B613D7740C8F282E028C0C12CD12CC9
:10285000760120E030E0A90167E3CE010E94781301
:10286000A701960169E2CE010E947813882349F0FE
:102870000E94202B601B710B613D774050F38AE072
:102880000DC08C818230E9F420E030E0A9016AE3D8
:10289000CE010E947813882339F088E08983CE0125
:1028A0000E94F11280E012C00E94E512807C803C00
:1028B00011F483E08C830E94E5120E94E5120E94CD
:1028C000E512CE010E94F112BA8281E0DF91CF9130
:1028D0001F910F91FF90EF90DF90CF90BF900895E0
:1028E0000F931F93CF93DF93EC0189018C81833089
:1028F00039F039E0440F551F661F771F3A95D1F71D
:102900009A01AB0161E1CE010E94781381110AC0E6
:1029100040E052E0B801CE01DF91CF911F910F91BD
:102920000C94071384E08983CE010E94F11280E0A9
:10293000DF91CF911F910F9108950F931F93CF9324
:10294000DF93EC01862F8A010E94EC12F80180814E
:102950008EBD818122E030E00DB407FEFDCF8EBD3B
:102960002115F2E03F0739F0F801E20FF31F8081F3
:102970002F5F3F4FF1CF0DB407FEFDCF8FEF0E94C9
:10298000EC128FEF0E94EC120E94E5128B838F7184
:10299000853039F083E18983CE010E94F11280E015
:1029A00001C081E0DF91CF911F910F9108950F93A6
:1029B0001F93CF93DF93EC0189018C81833039F031
:1029C00089E0440F551F661F771F8A95D1F79A013A
:1029D000AB0168E1CE010E947813882319F086E0EC
:1029E00089830CC0A8016EEFCE010E949D14182FA0
:1029F000882321F0CE010E94F11204C0CE010E9472
:102A0000F11210E0812FDF91CF911F910F91089566
:102A1000CF93DF93EC019C012A5F3F4F41E050E0F0
:102A200060E070E08C819D810E94741F882399F082
:102A30004E895F89688D798D452B462B472B59F43C
:102A40004E815F81688579854E8B5F8B688F798F2A
:102A5000998190689983DF91CF910895BF92CF9229
:102A6000DF92EF92FF920F931F93CF93DF93EC01CE
:102A70008A899B89AC89BD89803E9F4FAF41B10552
:102A8000A8F4CE010E940815882381F04E815F8151
:102A9000688579858C819D810E94701E6B017C0107
:102AA00045E00E941C1E8C01009719F480E090E024
:102AB00037C080E092E0F8019C0111922150304033
:102AC000E1F7BB24B394EC81FD818481B81688F4CE
:102AD0009801B701A6014B0D511D611D711D80911B
:102AE0006C0590916D050E94D7148823F9F2B39478
:102AF000EACF90E0A0E0B0E029E0880F991FAA1F7C
:102B0000BB1F2A95D1F74A895B896C897D89480F5B
:102B1000591F6A1F7B1F4A8B5B8B6C8B7D8BC80197
:102B2000DF91CF911F910F91FF90EF90DF90CF90A9
:102B3000BF900895CF93DF93EC01462F6E857F857C
:102B4000888999890E941C1E009739F02B8130E2F8
:102B5000239F800D911D112402C080E090E0DF9141
:102B6000CF910895FB012BE030E231932150E9F73A
:102B7000DC0190E027E03A2FEB2F8D9181110AC004
:102B8000DA013C931196EC9381E0FB019081903245
:102B900039F525C08F32A1F38E3219F0E2E2F2E06E
:102BA00008C02A30E1F098E02AE0E5CF31963817E6
:102BB000B1F034913111FACF291788F03FED380F79
:102BC0003E3568F431E0390FFB01E90FF11D9FE953
:102BD000980F9A3108F480528083932FCCCF80E0F5
:102BE00008952F923F924F925F926F927F928F92B1
:102BF0009F92AF92BF92CF92DF92EF92FF920F938C
:102C00001F93CF93DF9300D000D0CDB7DEB79C8366
:102C10008B836B017A01FC018281811103C08FEFEC
:102C20009FEFD1C0EB81FC81818180FFF8CFEB81E8
:102C3000FC81428953896489758982859385A4853D
:102C4000B5854701A12CB12C8A019B01081B190BEA
:102C50002A0B3B0B80169106A206B30618F07A01E8
:102C6000E81AF90A87018B819C8106969A838983E9
:102C7000812CF2E09F2E0115110509F46AC0EB8149
:102C8000FC8142855385648575855A01F1E0BF2238
:102C9000EB81FC8184819581FC0175801A012B01F7
:102CA000E9E05694479437942794EA95D1F7EB815D
:102CB000FC812281223051F4FC0166897789808D64
:102CC000918D620D731D841D951D2EC07220A1145F
:102CD000B104E1F471101AC0EB81FC81452B462B45
:102CE000472B49F486899789A08DB18D8683978378
:102CF000A087B1870BC04681578160857185298186
:102D00003A810E94881E882309F489CFEB81FC81D7
:102D10004681578160857185848195810E94701EEE
:102D2000670D711D811D911DA114B104A1F4011540
:102D3000F2E01F0780F040906F05509070056090A2
:102D40007105709072056415750586059705C9F4BF
:102D500002C0C70138C094012A193B093801201765
:102D6000310708F4390140E00E941C1E009709F465
:102D700056CFBC016A0D7B1DA301C6010E94183508
:102D80000FC09601AB01BC0180916C0590916D055F
:102D90000E947014882309F442CF612C32E0732E14
:102DA000C60CD71CEB81FC8182859385A485B585F3
:102DB000860D971DA11DB11D82879387A487B587B6
:102DC0000619170958CF0F900F900F900F90DF91B1
:102DD000CF911F910F91FF90EF90DF90CF90BF9018
:102DE000AF909F908F907F906F905F904F903F90AB
:102DF0002F900895CF93DF931F92CDB7DEB741E0B8
:102E000050E0BE016F5F7F4F0E94F115019719F4EA
:102E1000898190E002C08FEF9FEF0F90DF91CF91FB
:102E200008954F925F926F927F92AF92BF92CF922E
:102E3000DF92EF92FF920F931F93CF93DF93EC01FA
:102E40006A017B012A81222349F08A899B89AC8906
:102E5000BD8984179507A607B70710F480E06CC0FA
:102E6000223009F464C0C114D104E104F10449F42E
:102E70001E821F82188619861A861B861C861D864E
:102E80005AC08A859B85AC85BD85EC81FD81E28534
:102E9000F0E03996AC01BD01415051096109710959
:102EA0000E2E04C076956795579547950A94D2F7EC
:102EB00097018601015011092109310904C0369595
:102EC000279517950795EA95D2F704171507260752
:102ED000370720F0892B8A2B8B2B49F48E899F8909
:102EE000A88DB98D8E839F83A887B98704C0041BE2
:102EF000150B260B370B280139015E0186E0A80E61
:102F0000B11C411451046104710489F04E815F8148
:102F10006885798595018C819D810E94881E91E04C
:102F2000491A5108610871088111EBCF05C0CA86A2
:102F3000DB86EC86FD8681E0DF91CF911F910F91BA
:102F4000FF90EF90DF90CF90BF90AF907F906F9009
:102F50005F904F900895AF92BF92CF92DF92EF9221
:102F6000FF920F931F93CF93DF9300D000D0CDB784
:102F7000DEB78C01FC0186899789A08DB18D89838C
:102F80009A83AB83BC83A12CB12C49815A816B817C
:102F90007C819E012F5F3F4FD80114968D919C91AB
:102FA00015970E94881E8823C1F1D8011496ED91CF
:102FB000FC9115978481A80EB11CA114B0E1BB0649
:102FC00058F5C980DA80EB80FC808389803149F430
:102FD00081E0E8EFCE16EFEFDE06E104F10450F4F5
:102FE000D4CF81E0F8EFCF16FFEFDF06EF06FFE06A
:102FF000FF0658F2A50160E070E099E0440F551F0C
:10300000661F771F9A95D1F7D80152964D935D931D
:103010006D937C93559701C080E00F900F900F90B7
:103020000F90DF91CF911F910F91FF90EF90DF9064
:10303000CF90BF90AF900895CF93DF93EC01FB0149
:103040008A81882311F080E03CC07D836C83838972
:10305000803109F18032B9F783E08A834689578944
:10306000608D718D4E8B5F8B688F798FCE010E9442
:10307000AB17882341F381E089831E821F82188663
:1030800019861A861B861C861D861E861F86188A30
:10309000198A1B8216C082E08A831E8A1F8A188EB4
:1030A000198E4489558960E070E025E0440F551F72
:1030B000661F771F2A95D1F74A8B5B8B6C8B7D8BB4
:1030C000DACFDF91CF9108950F931F93CF93DF93C2
:1030D000EC018A818823E1F1898187FF33C061E0B7
:1030E000CE010E949A158C01009791F1FC0180811C
:1030F000853E71F18A81823040F44A895B896C890E
:103100007D89448F558F668F778F4E895F89688D53
:10311000798DF801538F428F758B648BE091680530
:10312000F0916905309759F0B8016A5E7F4FC80188
:1031300048960995F801808D918D938B828B8981BA
:103140008F778983DF91CF911F910F910C94CD1DC3
:1031500081E0888380E0DF91CF911F910F910895E6
:10316000CF93DF93EC010E9464181A82DF91CF9114
:1031700008954F925F926F927F92AF92BF92CF92DB
:10318000DF92EF92FF920F931F93CF93DF9300D0C4
:1031900000D0CDB7DEB75C016A017B01FC01828102
:1031A0008130F1F4818181FF1BC0F501828993890F
:1031B000A489B58984179507A607B70788F0892BD6
:1031C0008A2B8B2B09F479C0F501428453846484E3
:1031D0007584B701A601C5010E941117811102C0B3
:1031E00080E06CC0F50184819581C114D104E104B3
:1031F000F10471F446895789608D718D0E947920A0
:10320000882371F3F501168A178A108E118E3AC041
:10321000F50146815781608571859E012F5F3F4F83
:103220000E94881E8823E1F249815A816B817C814A
:10323000F50184819581FC012389203139F4483FCF
:10324000FFEF5F0761057105E8F407C0483F2FEF06
:10325000520762072FE07207A8F40E9479208823A2
:1032600009F4BECFF50146815781608571850FEF66
:103270001FEF2FEF3FE0848195810E94011F88237B
:1032800009F4AECFF501C28AD38AE48AF58A818136
:1032900080688183C5010E946418882309F4A0CF47
:1032A000B701A6014C145D046E047F0410F4B30151
:1032B000A201C5010E94111701C081E00F900F907B
:1032C0000F900F90DF91CF911F910F91FF90EF9092
:1032D000DF90CF90BF90AF907F906F905F904F90B6
:1032E0000895BF92CF92DF92EF92FF920F931F93B8
:1032F000CF93DF93EC01B42E80E2689FF00111249C
:10330000ED58FA4F8385817121F0842F827109F085
:103310004BC080916F0590917005A0917105B0919F
:1033200072058E879F87A88BB98B6B83048915895B
:1033300020E030E0980111270027C28CD38CE12CCB
:10334000F12C0C291D292E293F290E8B1F8B288F2C
:10335000398F8385887151F4048D158D268D378DB5
:103360000A8B1B8B2C8B3D8B81E008C08031E1F4F4
:10337000CE010E94AB178823B9F084E08A838B2D9D
:103380008F7089831E821F82188619861A861B8673
:103390001C861D86B4FE0BC040E050E0BA01CE0191
:1033A0000E94B918811103C01A8280E013C0B5FED3
:1033B00010C04A895B896C897D89CE01DF91CF91EC
:1033C0001F910F91FF90EF90DF90CF90BF900C94E2
:1033D000111781E0DF91CF911F910F91FF90EF9036
:1033E000DF90CF90BF9008955F926F927F928F92FF
:1033F0009F92AF92BF92CF92DF92EF92FF920F9384
:103400001F93CF93DF937C01EB016A01622E8C81C5
:103410009D81F7019583848340E050E0BA01CE019D
:103420000E941117712C4A855B856C857D858A8980
:103430009B89AC89BD89481759076A077B0708F043
:1034400056C0CE010E94FA1697FD9BC00A851B85C7
:103450002C853D8501501E4F2F4F3F4F0A871B87FC
:103460002C873D8780906F0590907005A090710526
:10347000B090720503E715E0512CF8018081882394
:1034800011F0853E79F4711006C0F70186869786A3
:10349000A08AB18A5382F8018081772473948111C4
:1034A00009C025C04BE050E0B801C6010E940B35B1
:1034B000892B39F05394005E1F4FF0E15F12DDCF8E
:1034C000B2CF67FC5EC0462D652DC701DF91CF915D
:1034D0001F910F91FF90EF90DF90CF90BF90AF9032
:1034E0009F908F907F906F905F900C947119862DB4
:1034F0008274823409F045C0772051F0F70153807F
:1035000061E0C7010E949A15EC01009759F439C097
:103510008A818230B1F1CE010E942E15009789F187
:10352000EC01512C80E2FE0111928A95E9F78BE0C3
:10353000F601DE0101900D928A95E1F7E0916805B0
:10354000F0916905309739F0BE01625F7F4FCE017F
:103550004096099508C081E298E2998B888B80E0BB
:1035600098E09F878E87888999899B8B8A8B998F12
:10357000888F8E859F859F8B8E8B0E94CD1D81119C
:10358000A2CF80E0DF91CF911F910F91FF90EF903C
:10359000DF90CF90BF90AF909F908F907F906F9073
:1035A0005F9008953F924F925F926F927F928F92B9
:1035B0009F92AF92BF92CF92DF92EF92FF920F93C2
:1035C0001F93CF93DF93CDB7DEB7C154D1090FB6A8
:1035D000F894DEBF0FBECDBF5C016B0122965FAFDA
:1035E0004EAF2297522E1B8E1D8E19821B826115A3
:1035F000710511F480E07FC0FC0182818111FACF56
:103600002296EEADFFAD229780818F3211F07601C8
:1036100026C02296EEADFFAD229780818F3231F425
:1036200031962296FFAFEEAF2297F3CFF6018111CC
:1036300006C064817581C5010E941C185CC082812E
:103640008250823020F3F60164817581CE010196AB
:103650000E941C18882371F2CE0101967C018E0114
:10366000055E1F4F3801FE0131964F01402E312E6D
:103670001BC08823C1F121E0AE014B5C5F4FB70155
:10368000C8010E94F419882309F4B4CFEC14FD0496
:1036900019F0C7010E94B0180615170509F1942DFD
:1036A000832D7801092F182FAE01405C5F4FBE01BA
:1036B0006B5C7F4F22968EAD9FAD22970E94B21514
:1036C000882309F497CF2296EEADFFAD2297808133
:1036D0008F3279F631962296FFAFEEAF2297F3CF75
:1036E000982D892DDECF252DAE014B5C5F4FB701A4
:1036F000C5010E94F419CF5BDF4F0FB6F894DEBF0F
:103700000FBECDBFDF91CF911F910F91FF90EF9032
:10371000DF90CF90BF90AF909F908F907F906F90F1
:103720005F904F903F900895CF93DF93CDB7DEB772
:103730006A970FB6F894DEBF0FBECDBFAB011982FA
:103740001B8221E0BC01CE0101960E94D21A6A962A
:103750000FB6F894DEBF0FBECDBFDF91CF910895B5
:10376000FB01242F60916A0570916B05AF010C94E9
:10377000D21A2F923F924F925F926F927F928F92C6
:103780009F92AF92BF92CF92DF92EF92FF920F93F0
:103790001F93CF93DF93CDB7DEB762970FB6F89440
:1037A000DEBF0FBECDBF8C014B015A01FC018281EF
:1037B0008130C1F4818181FF15C082FF19C0F801F9
:1037C000428953896489758982859385A485B585E5
:1037D00084179507A607B70759F0C8010E9411176B
:1037E000811106C081E0F80180838FEF9FEF2BC12C
:1037F000A50160E070E0F80182859385A485B58518
:1038000080959095A095B09584179507A607B70762
:1038100048F36501212C32E0332E71C0F801848118
:103820009581B301A20129E0769567955795479553
:103830002A95D1F7FC01F580F422920131703A8B80
:10384000298BFF2009F465C0F80146815781608506
:103850007185848195810E94701E6F0D711D811D7F
:10386000911D49885A88452809F097C0C11422E063
:10387000D20608F099C0F8014284538464847584A8
:103880004D825E826F82788642885388648875880C
:103890002D813E814F8158852415350546055705F4
:1038A00008F47BC045E00E941C1E009709F49ACFE3
:1038B000310149885A886418750876016C147D04B2
:1038C00008F47301A701B40149885A88840D951D35
:1038D0000E941835E614F70409F461C0F8018285E6
:1038E0009385A485B5858E0D9F1DA11DB11D828771
:1038F0009387A487B5878E0C9F1CCE18DF08F8012C
:103900004284538464847584C114D10409F086CF41
:1039100072C0232B09F098CFF8014681578160854A
:103920007185411551056105710511F19E012F5FEA
:103930003F4F0E94881E882309F454CF89819A81C1
:10394000AB81BC81F80124813581F90123892031C3
:1039500039F4883FFFEF9F07A105B10590F417C028
:10396000883F2FEF9207A2072FE0B20780F009C02F
:10397000F80186899789A08DB18D0097A105B105C1
:1039800031F4C8010E94081581115ECF2BCFF801D8
:1039900086839783A087B18757CF41E084CF0E9469
:1039A000601E81119BCF1ECF40906F055090700517
:1039B0006090710570907205461657066806790684
:1039C00051F469877A878B879C870E94621E9C8549
:1039D0008B857A8569859401AB01BC0180916C056A
:1039E00090916D050E94D714882309F4FBCEE12C39
:1039F00082E0F82E73CF82899389A489B5892181C9
:103A000084159505A605B70530F4428A538A648A61
:103A1000758A20680BC08091680590916905892B93
:103A200031F0A114B10419F02068F8012183F801E4
:103A3000818183FD02C0C50106C0C8010E946418CF
:103A40008111F9CFCFCE62960FB6F894DEBF0FBECC
:103A5000CDBFDF91CF911F910F91FF90EF90DF903D
:103A6000CF90BF90AF909F908F907F906F905F901E
:103A70004F903F902F9008950F931F93CF93DF9314
:103A80008C01EC016F96662321F0D0936B05C093F7
:103A90006A05F80181A1882319F0CE010E94B018AF
:103AA000B8016B5F7F4FCE01DF91CF911F910F91D6
:103AB0000C941C180F931F93CF93DF93EC010E947B
:103AC000C0138823C9F08E010B5F1F4F41E0BE0178
:103AD000C8010E94D720882341F061E0CE01DF9128
:103AE000CF911F910F910C943C1D40E0BE01C80185
:103AF0000E94D7208111F1CF80E0DF91CF911F91FB
:103B00000F9108954F960C94941B04960C94B91B36
:103B1000CF93DF931F92CDB7DEB7698341E050E0CA
:103B2000BE016F5F7F4F04960E94B91B21E030E019
:103B3000019711F020E030E0C9010F90DF91CF91A3
:103B4000089561E081E10E94742C61E081E10E94AE
:103B50003B2C60E08EE00E943B2C61E080E10E9403
:103B60003B2C61E08FE00C943B2C92E080E09617B8
:103B700028F4863019F0990F8F5FF9CF982F906A4B
:103B800096959CBD80FD06C091E0863009F490E0DA
:103B9000892F01C080E08DBD08950F931F93CF93AF
:103BA00080916E0580FF42C040916F055091700575
:103BB000609171057091720523E735E080916C0585
:103BC00090916D050E94D714C82F811102C0C0E0EA
:103BD0002EC080916E0581FD06C080916E058E7F9E
:103BE00080936E0524C0809177078230B0F34091B6
:103BF0007307509174076091750770917607009173
:103C00006F05109170052091710530917205400F7C
:103C1000511F621F731F23E735E080916C0590915F
:103C20006D050E94D7148111D8CFD1CFC1E08C2F60
:103C3000CF911F910F910895CF92DF92EF92FF9253
:103C4000CF936B017C01C42F80916F05909170051B
:103C5000A0917105B09172058C159D05AE05BF054B
:103C600009F10E94CD1D811103C080E090E022C0C7
:103C7000C2FF0BC010926E05C0926F05D092700506
:103C8000E0927105F09272050DC023E735E0B701AF
:103C9000A60180916C0590916D050E9470148111B0
:103CA000E9CFE3CFC37080916E058C2B80936E05B6
:103CB00083E795E0CF91FF90EF90DF90CF9008954C
:103CC0000C94CD1D8FEF9FEFDC0180936F059093D7
:103CD0007005A0937105B093720510926E0508955A
:103CE0004250510961097109FC01028404C0440F6A
:103CF000551F661F771F0A94D2F783859485A58583
:103D0000B685480F591F6A1F7B1FCB01BA01089562
:103D10008F929F92AF92BF92CF92DF92EF92FF92DB
:103D20000F931F93CF93DF93EC016A017B0189010D
:103D3000423051056105710508F455C08E819F819F
:103D4000A885B9850196A11DB11D84179507A60701
:103D5000B70708F448C08B89803129F499278F2D43
:103D60007E2D6D2D0BC08032F1F5CB01BA0147E0FD
:103D700096958795779567954A95D1F78F8498881A
:103D8000A988BA88680D791D8A1D9B1D42E00E9492
:103D90001C1E009741F12B89203169F4DD24EE24AB
:103DA000FF24F601EE0FFF1FE80FF91F80819181BC
:103DB000A0E0B0E011C0E894C7F8DD24EE24FF24B1
:103DC000F601EE0FFF1FEE0FFF1FE80FF91F8081B6
:103DD0009181A281B381BF70F80180839183A28316
:103DE000B38381E001C080E0DF91CF911F910F91FB
:103DF000FF90EF90DF90CF90BF90AF909F908F900B
:103E000008958F929F92AF92BF92CF92DF92EF92DE
:103E1000FF920F931F93CF93DF93EC016A017B0115
:103E200048015901423051056105710508F44EC041
:103E30004E815F81688579854F5F5F4F6F4F7F4F00
:103E40004C155D056E057F0508F440C08B898031F7
:103E500029F499278F2D7E2D6D2D0BC08032B1F561
:103E6000C701B601E7E09695879577956795EA953E
:103E7000D1F70F85188929893A89600F711F821F30
:103E8000931F43E00E941C1E009701F12B892031F3
:103E900059F4DD24EE24FF24F601EE0FFF1FE80F96
:103EA000F91F9182808210C0E894C7F8DD24EE24C7
:103EB000FF24F601EE0FFF1FEE0FFF1FE80FF91FA3
:103EC00080829182A282B38281E001C080E0DF9192
:103ED000CF911F910F91FF90EF90DF90CF90BF9007
:103EE000AF909F908F9008952F923F924F925F9244
:103EF0006F927F928F929F92AF92BF92CF92DF92FA
:103F0000EF92FF920F931F93CF93DF93CDB7DEB75E
:103F10002F970FB6F894DEBF0FBECDBF1C014B87A5
:103F20005C876D877E873A872987DC0116960D911D
:103F30001D912D913C9119970F5F1F4F2F4F3F4FB0
:103F40000D831E832F833887E985FA8580809180D1
:103F5000A280B38081149104A104B10439F0FFEF71
:103F60008F1A9F0AAF0ABF0A1F8607C0DC018D9017
:103F70009D90AD90BC9001E00F8775016401412CCC
:103F8000512C3201F10186819781A085B1854816B7
:103F900059066A067B0608F05FC00D811E812F81DD
:103FA00038850C151D052E053F0550F4A2E0CA2EDC
:103FB000D12CE12CF12CB2E08B2E912CA12CB12C28
:103FC0009E012F5F3F4FB701A601C1010E94881ECD
:103FD000882309F441C049815A816B817C81D701D2
:103FE000C6010196A11DB11D452B462B472B49F05B
:103FF0008C149D04AE04BF0409F01F864C015D01C2
:104000000FC0AC01BD01481959096A097B090B852C
:104010001C852D853E85401751076207730741F0C7
:104020001FEF411A510A610A710A6C017D01AACF82
:104030000F85002329F0F10180839183A283B3834C
:104040000FEF1FEF2FEF3FE0B701A601C1010E9464
:10405000011F8D83811114C01D8231C026013701DB
:10406000F1E04F1A51086108710897018601B30108
:10407000A201C1010E94011F882371F37301620133
:104080008C149D04AE04BF0448F3A985BA854D91F4
:104090005D916D917C91411551056105710539F472
:1040A000E985FA8580829182A282B38208C0950157
:1040B0008401C1010E94011F8111F2CFCDCF8D81FA
:1040C0002F960FB6F894DEBF0FBECDBFDF91CF9114
:1040D0001F910F91FF90EF90DF90CF90BF90AF9026
:1040E0009F908F907F906F905F904F903F902F9018
:1040F0000895AF92BF92CF92DF92EF92FF920F930B
:104100001F93CF93DF9300D000D0CDB7DEB75C0113
:104110006A017B019E012F5F3F4FB701A601C501D8
:104120000E94881E811102C080E032C000E010E0D1
:104130009801B701A601C5010E94011F8823A1F3C0
:10414000F50180819181A281B381C816D906EA0662
:10415000FB0620F4C082D182E282F382C980DA8039
:10416000EB80FC80F5018389803149F481E0F8EF30
:10417000CF16FFEFDF06E104F10450F4CBCF81E06E
:1041800098EFC9169FEFD906E9069FE0F90610F2ED
:104190000F900F900F900F90DF91CF911F910F9183
:1041A000FF90EF90DF90CF90BF90AF9008958F92E7
:1041B0009F92AF92BF92CF92DF92EF92FF920F93B6
:1041C0001F93CF93DF93EC01142F70936D056093D1
:1041D0006C051B8A82E090E0A0E0B0E088839983C0
:1041E000AA83BB8310926E058FEF9FEFDC01809353
:1041F0006F0590937005A0937105B09372054423E9
:1042000011F1453008F0BFC040E060E070E0CB0144
:104210000E941C1E009709F4B6C0FC0120E1129F09
:10422000E00DF11D1124E255FE4F80818F7709F0DA
:10423000AAC0C084D184E284F384C114D104E1040F
:10424000F10421F4A0C0C12CD12C760140E0C701BB
:10425000B6010E941C1EFC01009709F494C08385DE
:1042600094858115924009F08EC02089222309F49B
:104270008AC086859785892B09F485C020937707A6
:1042800035853C838FEF830F8D831A8688E090E01D
:1042900021E0321741F0220F019709F474C04A85DA
:1042A0004F5F4A87F6CF268937892115310519F0E6
:1042B00040E050E004C024A135A146A157A12093BD
:1042C000730730937407409375075093760786857C
:1042D000978546015701880E991EA11CB11C8F8637
:1042E000988AA98ABA8A018912891D8B0C8BA089A8
:1042F000B0E00E94D034680D791D8A1D9B1D6E8B25
:104300007F8B888F998F25E0000F111F2A95E1F789
:1043100001501E4F012F11270695DC01CB01800FA4
:10432000911FA11DB11D8B879C87AD87BE87038917
:1043300014890115110519F020E030E004C000A136
:1043400011A122A133A1B701A601481B590B6A0B89
:104350007B0BDB01CA01800F911FA21FB31F0A84D0
:1043600004C0B695A795979587950A94D2F78E8342
:104370009F83A887B987853F5FE09507A105B105B1
:1043800020F48CE08B8B80E012C0853F9F4FA1050D
:10439000B10510F480E109C084A595A5A6A5B7A52F
:1043A0008E8B9F8BA88FB98F80E28B8B81E0DF9102
:1043B000CF911F910F91FF90EF90DF90CF90BF9022
:1043C000AF909F908F9008950F93FC0113AE14AEA1
:1043D00015AE04960E946C270F9108950F93FC016F
:1043E0000150040F84A996A9941718F0081728F40F
:1043F00002C0081750F0041740F42150260F83A97B
:1044000095A9961720F4281720F480E007C02817F4
:1044100020F481E0261710F0F8CF81E00F91089585
:10442000DB011496ED91FC91159720E030E061E0FE
:104430000994DB011496ED91FC91159720E030E092
:1044400063E00994DB011496ED91FC91159720E04F
:1044500030E040E064E00994DB011496ED91FC91BA
:10446000159720E030E041E064E00994DB01149608
:10447000ED91FC91159720E030E062E00994DB01BA
:104480001496ED91FC91159720E030E065E00994D9
:10449000DB011496ED91FC91159766E00994AF92BB
:1044A000BF92CF92DF92EF92FF920F931F93CF9321
:1044B000DF931F92CDB7DEB75C018B017A0180E0FC
:1044C000F7014491811109C04F3FD9F1B801C501ED
:1044D0000E943F2281112EC039C04F3FB9F34E3F99
:1044E000B9F1403F38F5403E30F04F70B801C5019A
:1044F0000E9436221FC0403D30F04F70B801C50108
:104500000E94192217C0403CB8F0B801C501498388
:104510000E94222249814295407F4E5FC42ED12CB9
:10452000C6010E946223B801C5010E942C22C60167
:104530000E94622380E006C047FDFCCF842F90E0FC
:10454000F7CF81E0FFEFEF1AFF0ABACF80E001C09A
:1045500081E00F90DF91CF911F910F91FF90EF902D
:10456000DF90CF90BF90AF900895860F911DFC0112
:1045700083A18F3F19F0642F0C94742C0895EF924F
:10458000FF920F931F93CF93DF937C01C0E0D0E0A5
:1045900087010C0F1D1FF80183A18F3F41F061E0DF
:1045A0000E943B2C61E0F80183A10E94742C2196AB
:1045B000CD30D10569F7DF91CF911F910F91FF9019
:1045C000EF9008958EBD0DB407FEFDCF8EB5089512
:1045D000CF92DF92EF92FF920F931F93CF93DF93CF
:1045E0001F92CDB7DEB76C017901062F10E0F801FC
:1045F0003197E730F10508F05AC0EA5AFF4F0C94A2
:10460000C33449830E94BF2261E08FE00E943B2CAB
:1046100060E08FE00E94742C61E080E10E943B2CFE
:1046200060E080E10E94742C61E081E10E943B2CFB
:1046300061E081E10E94742C1CBC80E58CBD498145
:104640004230A8F581E08DBD32C061E004C0411167
:1046500006C041E062E0C6010E94B52228C040E0E9
:1046600064E00E94B52240E0F5CFFC0183A18F3FBA
:10467000F1F060E0F0CF842F0E94E22218C04423C2
:10468000B1F0F70181917F0149830E94E2224981C3
:104690004150F5CF442359F0F701849149830E949A
:1046A000E222FFEFEF1AFF0A49814150F3CF81E088
:1046B0000F90DF91CF911F910F91FF90EF90DF90BE
:1046C000CF9008952EEC37E0009729F0F90131974B
:1046D000F1F70197F9CF0895BF92CF92DF92EF9251
:1046E000FF920F931F93CF93DF938C01EB01B42EB6
:1046F000790180E1481709F456C0841710F1EAE007
:104700004E1731F1FFE04F1359C041E0C8010E943C
:10471000192240E0BE01C8010E94362241E8BE01D4
:10472000C8010E943F22F701408146954695BE018F
:10473000C8010E943F2240E0BE01C8010E94192228
:104740003BC081E1481791F1E5E14E1761F036C0B9
:1047500043E0C8010E94102242E552E0BE01C801B8
:104760000E944F222BC0CA80DB804AE452E0C8017D
:104770000E944F22F6014481406BBE01C8010E9495
:104780003F2241E0BE01C8010E943622AE01B801BD
:10479000C6010E942828882301F140E0BE01C8011B
:1047A0000E9419220BC04EE352E002C042E352E0E5
:1047B000BE01C8010E944F2281E010C097014B2D1D
:1047C000BE01C801DF91CF911F910F91FF90EF9033
:1047D000DF90CF90BF900C94A02880E0DF91CF9124
:1047E0001F910F91FF90EF90DF90CF90BF900895B1
:1047F000FC01E60FF11D849190E0982F88273196F7
:10480000E4918E0F911D0895FC01849108950E94FA
:104810000424882311F0823011F486E0089583E0A7
:10482000089580E0089566E00C94F82368E00C9405
:10483000F8230A96FC01849108950B96FC0184915B
:104840000895BF92CF92DF92EF92FF920F931F9342
:10485000CF93DF93EC01E62E0C811D81C8010E94ED
:104860000424F82E8C819D810E940724B82E21E01B
:10487000F21619F0CC24CA9402C05FE0C52E8C81D8
:104880009D810E941924F82E8C819D810E941D24F7
:10489000D82E8C819D810E941624E0E6EE1538F416
:1048A000009729F0080F191F41E6F42E10C08C81E3
:1048B0009D810E941324F0E4FE1538F4009729F03E
:1048C000080F191F31E4F32E02C00F5E1F4FDE14D4
:1048D00040F4188A1B8A1C8A198A1A8A80E090E0A0
:1048E00050C0DF14B0F32B2D30E0F80184918F3FDE
:1048F00019F40F5F1F4F40C0FE1036C08C819D81A0
:104900000E94042498012F5F3F4FF801882311F083
:10491000823091F484918B8BF90124912C8BF801D6
:104920003396E491E88BF8013496E491E98BF80131
:104930003596E491EA8B16C09491892F8F7082503E
:104940008A8B92959F70998BF9012491822F8F7099
:104950008C8B22952F702B8BF8013296E491E29587
:10496000EF70E88BC8010DC0F8013296E491EC219C
:104970000E0F111D020F131FFD1409F4AACFF3949B
:10498000B4CFDF91CF911F910F91FF90EF90DF9007
:10499000CF90BF9008954F925F927F928F929F9297
:1049A000AF92BF92CF92DF92EF92FF920F931F933D
:1049B000CF93DF931F92CDB7DEB72C01162F742E45
:1049C000622F0E9421246C01009709F43EC0F2017D
:1049D000848195810E940724F82EF201838804893E
:1049E0009188910E8289781A172D101B282D412F3E
:1049F000692DC2010E94EE21882321F1CF0CD11C28
:104A0000F7E08F0E869486948694A82CB12C171507
:104A1000C9F0392D76018E2D8C19881578F4F7019F
:104A2000049120E0412F632FC20139830E94B227F5
:104A3000FFEFEF1AFF0A3981385FEDCFCA0CDB1C9C
:104A40001F5FE5CFF201808901C080E00F90DF9108
:104A5000CF911F910F91FF90EF90DF90CF90BF907B
:104A6000AF909F908F907F905F904F9008950F939D
:104A70001F93CF93DF9300D01F92CDB7DEB78C0189
:104A8000DC015596ED91FC9156972B834A836983FF
:104A900009954A81480F2B816981C8010F900F90B9
:104AA0000F90DF91CF911F910F910C94CB24AF9277
:104AB000BF92DF92EF92FF920F931F93CF93DF93FA
:104AC00000D0CDB7DEB78C01E62EF42EDC01559672
:104AD000ED91FC91569729833A830995F80E298127
:104AE000A22E3A81B32ED12CF50121915F01222310
:104AF00041F04F2D6E2DC8010E94CB24E80ED80E38
:104B0000F3CF8D2D0F900F90DF91CF911F910F91CB
:104B1000FF90EF90DF90BF90AF900895DC01149666
:104B20008D919C911597009709F43FC057962C9151
:104B30005797FC01211108C03596E4915896EC93E3
:104B40005897FC013C9611C0213041F43F96E49106
:104B50005896EC935897FC01709607C03D96E491E7
:104B60005896EC935897FC013E96849159968C93F5
:104B7000599758968C915897992787FD90955996F3
:104B80002C915997821B910927FD93955A962C9148
:104B90005A97203441F0829FC0011124E6E0969597
:104BA0008795EA95E1F75B968C93089521E134E2CD
:104BB000FC01368B258B0895CF93DF93EC018C811C
:104BC0009D818617970749F07D836C83CE010E94F3
:104BD0008E2581E194E29E8B8D8BDF91CF9108959C
:104BE000AF92BF92CF92DF92EF92FF920F931F93FB
:104BF000CF93DF93EC01162FF42EE22E261718F434
:104C0000C62EC21A02C0C22EC61A0F1518F4DF2C07
:104C1000D01A02C0D02EDF18CD1428F08D2DDC2C38
:104C2000C82EA12C08C08E2DE02E082F812F1F2DFD
:104C3000F82EAA24A394E11630F48F2DF02E082F1D
:104C4000812F1E2DE82EBD2CB694F01610F401E035
:104C50000FC00FEF0DC0A1100EC04F2D612FCE0160
:104C60000E94AA27BC18B7FE02C0F00EBD0C1F5F41
:104C7000E11688F703C0412F6F2DF1CFDF91CF915F
:104C80001F910F91FF90EF90DF90CF90BF90AF906A
:104C900008951F93CF93DF93EC011D821C821F8226
:104CA0001E82198681E0888782E28A871F861E8697
:104CB00080E090E02FEFFE01E80FF91F23A301969B
:104CC0008E309105C1F711E018A3CE010E94D625C0
:104CD0001F8B188E198E80E48A8F1B8E8FEA99E2C3
:104CE0009AAB89ABDF91CF911F910895DB01ED91D4
:104CF000FC910994EF92FF921F93CF93DF9300D022
:104D0000CDB7DEB77C01DC01D196ED91FC91D29755
:104D100082E069837A83099520E030E04AE0698186
:104D20007A81C7010E947626182FD701D196ED917E
:104D3000FC91D29783E00995D701D196ED91FC9132
:104D4000D29780E00995812F0F900F90DF91CF913E
:104D50001F91FF90EF9008950F931F93CF93DF93D0
:104D6000EC018B01E9A9FAA982E00995E9A9FAA960
:104D700081E0099520E030E044E1B801CE010E94D5
:104D800076269E012D5C3F4F47E1B801CE010E947F
:104D90007626E9A9FAA980E0DF91CF911F910F91C2
:104DA0000994FF920F931F93CF93DF93EC018B0134
:104DB000E9A9FAA982E00995E9A9FAA981E009958A
:104DC00020E030E045E1B801CE010E947626F82EC1
:104DD000882341F09E012D5C3F4F47E1B801CE0191
:104DE0000E947626E9A9FAA980E009958F2DDF9126
:104DF000CF911F910F91FF900895CF93DF931F9252
:104E0000CDB7DEB749839E012F5F3F4F4FE00E9431
:104E100076260F90DF91CF910895FC01448F258F66
:104E20009C01245E3F4F42E30C947626CF93DF93A0
:104E30001F92CDB7DEB79E012F5F3F4F46E40E9421
:104E4000762689810F90DF91CF910895CF93DF93DC
:104E50001F92CDB7DEB79E012F5F3F4F47E40E9400
:104E6000762689810F90DF91CF91089520E030E080
:104E700048E40C947626CF93DF93EC016A817B8122
:104E80000E94162788836A817B81CE010E94262793
:104E900089836A817B81CE010E9436278B879E01A0
:104EA0002D5C3F4F6A817B8147E1CE01DF91CF913D
:104EB0000C947626CF93DF93EC016A817B810E946C
:104EC0007A26882329F0CE010E943B2781E001C089
:104ED00080E0DF91CF910895CF92DF92EF92FF9221
:104EE0000F93CF93DF9300D0CDB7DEB76C017B017A
:104EF0002A8349830E944926F601F382E28249818E
:104F000045A32A8124A303A3C6010F900F90DF912C
:104F1000CF910F91FF90EF90DF90CF900C945A2794
:104F2000FC01628173810C94AC26CF93DF93EC017A
:104F3000EE85FF85309709F009956A817B81CE0166
:104F4000DF91CF910C94D126462FFC0162817381B1
:104F50000C94FD26362F242FFC0162817381432F90
:104F60000C940D270F93FC0182819381648F458FF0
:104F7000278F068F9F01245E3F4F4BE3BC01CF017B
:104F80000F910C947626FC0160A30895FC01128217
:104F900080818150838314820895FC012081828165
:104FA000820F82839181891760F484818F5F84836B
:104FB0008381820F891710F08FEF890F838381E03F
:104FC000089580E00895DC011696ED91FC91179705
:104FD00015968C919F01280F311DC9011192E81778
:104FE000F907E1F70895FC0191E08381861708F441
:104FF00090E021E0461708F020E0322F392B81E0C5
:105000005281451708F480E083239223892B089569
:10501000DC01FB01108212968C9112978183159608
:105020008C9115978150828313968C918383089578
:10503000FB0141812381213029F0233031F468EFD5
:10504000640F04C0642F485F01C0642F0C94F327E1
:10505000FC01CB01BA012681378145810C9448229D
:10506000DC011696ED91FC91179712968C91481BD6
:10507000477081E090E0042E01C0880F0A94EAF79F
:10508000E60FF11D3081222311F0832B02C08095A1
:10509000832380830895FB014181DC0112962C91CA
:1050A0001297421768F013962C911397241740F02B
:1050B000608115962C91621718F424810C94302885
:1050C0000895CF92DF92FF920F931F93CF93DF93B8
:1050D00000D0CDB7DEB78C016B01FB01F28083817C
:1050E000813039F070F0823039F0833041F020E0C7
:1050F00001C021E030E007C020E03FEF04C02FEF07
:10510000F9CF20E031E0F7FE08C0B601C8012983DD
:105110003A830E944B283A812981F6018081830FCE
:1051200080838181820F8183FF0C69F70F900F903C
:10513000DF91CF911F910F91FF90DF90CF90089555
:105140000F931F93CF93DF938901FB01C281D3811A
:105150004233F9F068F4453109F1473141F1443106
:1051600081F5CE010E94E327CE010E94C62729C007
:10517000463411F1473411F14B3319F5B901CE0121
:105180000E9418288823E9F0B801CE010E94612806
:1051900018C0B901CE010E944B2813C0CE010E9455
:1051A000CD27882381F0CE010E94E3270AC0B901F0
:1051B000CE010E94082805C08D8101C08981F801B7
:1051C000808381E001C080E0DF91CF911F910F913A
:1051D000089580E008958F929F92BF92CF92DF92C0
:1051E000EF92FF920F931F93CF93DF931F92CDB750
:1051F000DEB78C014901FB01E280F380423309F400
:1052000057C048F44C3209F453C04D3209F464C01D
:105210004731D9F009C0463409F440C0473409F495
:1052200041C04B3309F458C09401B701C8010F9035
:10523000DF91CF911F910F91FF90EF90DF90CF9072
:10524000BF909F908F900C94762647E1B7010E9403
:105250007626B701C8010E941627F401B280B094E7
:10526000B80EB701C8010E941627F401D080D0946F
:10527000D80EB701C8010E942627F401C380C0944C
:10528000C80EB701C8010E942627F40191819095AC
:10529000980FB082C182D28293833BC0B7010E9433
:1052A000162703C0B7010E942627F401808331C06E
:1052B000B701C80149830E942627F401D180D09408
:1052C000D80EB701C8010E941627F401908190956D
:1052D000980F9083D18217C0B701C80149830E94FB
:1052E0002627F401D180D094D80EB701C8010E94BE
:1052F0001627F40190819095980F9083D182838135
:105300008E5F8370838394014981B701C8010E9435
:10531000762681E00F90DF91CF911F910F91FF9042
:10532000EF90DF90CF90BF909F908F900895FC01F9
:1053300022813381F1E029323F0749F030932C017B
:1053400020932B0129E231E0FC01338322832BEEF1
:1053500038E230932A01209329010C943B270895C9
:10536000FC0170E071836083228343830895FC0114
:1053700032812381F2E03F9F200D112481E090E0F3
:1053800002C0880F991F2A95E2F70895FC016481F5
:105390007581868197810895CF93C62FFC01608126
:1053A000718187EA94E00E94BE106C2F87EA94E036
:1053B0000E945B1087EA94E0CF910C94D310FC011B
:1053C00062816370660F660F23812370622B0C94D9
:1053D000CC29FC0123812370206832813370330F84
:1053E000330F232B63706295660F607E262B622F2E
:1053F0000C94CC29FF920F931F93CF93DF93EC0172
:105400006881798143E050E087EA94E00E94B1101E
:1054100087EA94E00E940310039711F080E03FC0F8
:1054200087EA94E00E940B10F82E87EA94E00E942D
:105430000B1000E010E01F2D082B192B87EA94E0D9
:105440000E940B1087FDEACF0F3F8FE7180729F462
:105450004FEF5FEF6FEF7FE708C0011580E8180797
:1054600049F440E050E060E070E84C835D836E8377
:105470007F8314C0CE010E94B729AC0128EE33E02F
:10548000D8010E94C9349A01442737FD4095542F12
:105490000E94A4342C833D834E835F8381E0DF919F
:1054A000CF911F910F91FF900895DC01ED91FC9138
:1054B0000190F081E02D099467707727685B7F4F3A
:1054C000FC0171836083089587EA94E00C949A103C
:1054D0000F931F93CF93DF93EC018B016881798148
:1054E00087EA94E00E94BE10B80187EA94E00E9427
:1054F000552A87EA94E00E94D3106881798142E0BE
:1055000050E087EA94E00E94B11087EA94E00E949C
:105510000B10C82F87EA94E00E940B10992724E013
:10552000959587952A95E1F720E1C202800D911D9E
:105530001124DF91CF911F910F910895CF93C62F22
:10554000FC016081718187EA94E00E94BE1061E0F5
:1055500087EA94E00E945B106C2F87EA94E00E9437
:105560005B1087EA94E0CF910C94D310CF93DF9334
:10557000D82FC62F68E670E087EA94E00E94BE103C
:105580006D2F87EA94E00E945B106C2F87EA94E00D
:105590000E945B1087EA94E0DF91CF910C94D310C6
:1055A000682F8EE00C94B62A0C94D02A1F920F928A
:1055B0000FB60F9211242F933F938F939F93AF9326
:1055C000BF938091FD079091FE07A091FF07B091D6
:1055D00000083091FC0726E0230F2D3720F40296B7
:1055E000A11DB11D05C029E8230F0396A11DB11D02
:1055F0002093FC078093FD079093FE07A093FF077D
:10560000B09300088091010890910208A0910308CE
:10561000B09104080196A11DB11D809301089093DB
:105620000208A0930308B0930408BF91AF919F9123
:105630008F913F912F910F900FBE0F901F90189553
:105640002FB7F8946091FD077091FE078091FF07D6
:10565000909100082FBF08953FB7F89480910108FA
:1056600090910208A0910308B091040826B5A89B68
:1056700005C02F3F19F00196A11DB11D3FBF662740
:10568000782F892F9A2F620F711D811D911D43E084
:10569000660F771F881F991F4A95D1F70895CF92FB
:1056A000DF92EF92FF92CF93DF936B017C010E9418
:1056B0002C2BEB01C114D104E104F10489F00E9408
:1056C00022320E942C2B6C1B7D0B683E734090F3A2
:1056D00081E0C81AD108E108F108C851DC4FEACFCF
:1056E000DF91CF91FF90EF90DF90CF900895789465
:1056F00084B5826084BD84B5816084BD85B58260D7
:1057000085BD85B5816085BDEEE6F0E08081816074
:105710008083E1E8F0E01082808182608083808174
:1057200081608083E0E8F0E0808181608083E1E94E
:10573000F0E0808182608083808181608083E0E905
:10574000F0E0808181608083E1ECF0E08081846022
:105750008083808182608083808181608083E3ECAC
:10576000F0E0808181608083E0ECF0E08081826005
:105770008083E2ECF0E0808181608083EAE7F0E002
:105780008081846080838081826080838081816069
:1057900080838081806880830895823108F08251FF
:1057A000E82FF0E0E356FA4FE49180917B00E3FBB1
:1057B000222720F930E095E0220F331F9A95E1F778
:1057C0008F7D822B80937B00E77080912F0120E4F6
:1057D000829FC0011124E82BE0937C0080917A0025
:1057E000806480937A0080917A0086FDFCCF80915E
:1057F00078002091790090E0922B089590E0FC01D0
:105800003197EF30F105B0F5E35AFF4F0C94C334F4
:10581000809180008F7703C0809180008F7D80937E
:105820008000089580918000877FF9CF84B58F77BD
:1058300002C084B58F7D84BD0895809190008F77DC
:1058400007C0809190008F7D03C080919000877F7A
:105850008093900008958091C0008F7703C080915D
:10586000C0008F7D8093C00008958091C200877F23
:105870008093C2000895CF93DF9390E0FC01E8533A
:10588000FA4F2491FC01E951FA4F8491882349F1A0
:1058900090E0880F991FFC01EE5DF94FA591B4913E
:1058A0008C5E994FFC01C591D4919FB7611108C0DE
:1058B000F8948C91209582238C93888182230AC04E
:1058C000623051F4F8948C91322F309583238C936D
:1058D0008881822B888304C0F8948C91822B8C93CE
:1058E0009FBFDF91CF9108950F931F93CF93DF93C5
:1058F0001F92CDB7DEB7282F30E0F901E755FA4FF8
:105900008491F901E853FA4F1491F901E951FA4FE2
:1059100004910023C9F0882321F069830E94FE2BA3
:105920006981E02FF0E0EE0FFF1FEC5EF94FA591CB
:10593000B4919FB7F8948C91611103C010958123A5
:1059400001C0812B8C939FBF0F90DF91CF911F914E
:105950000F910895CF93DF93282F30E0F901E75599
:10596000FA4F8491F901E853FA4FD491F901E951C2
:10597000FA4FC491CC2391F081110E94FE2BEC2FA1
:10598000F0E0EE0FFF1FEA5FF94FA591B4912C9163
:105990002D2381E090E021F480E002C080E090E0DF
:1059A000DF91CF910895CF93DF931F92CDB7DEB7EC
:1059B0006983DC01ED91FC910280F381E02D41E0EF
:1059C00050E0BE016F5F7F4F09950F90DF91CF913F
:1059D0000895CF93DF93EC018C859D8597FF05C0DB
:1059E00082E00E945C2F9D878C878C859D85DF914E
:1059F000CF91089583E00C949A31FC0184859585BC
:105A000097FD06C082E00E94052F90E00196089560
:105A100082E00E94052F90E00895FC018485958521
:105A200097FD05C02FEF3FEF35872487089582E06B
:105A30000C945C2FCF93DF93EC0180913701882386
:105A400031F083E00E948D2F1816190634F081E0A2
:105A500090E09B838A8380E090E0DF91CF9108956E
:105A6000FC0120812E5F208342E450E060E376E079
:105A700080E80C942730FC0181819081913A59F49F
:105A8000813209F03CC047E050E060E371E080E023
:105A90000E94273043C0913291F5803239F467E09B
:105AA00070E080E391E00E94583006C0823209F035
:105AB00035C082818093370180913001909131010E
:105AC000A0913201B0913301803B9440A105B10512
:105AD000C1F48091370180FD14C087E797E7909368
